{
  "contractName": "AcademicResources",
  "abi": [
    {
      "inputs": [
        {
          "internalType": "address",
          "name": "tokenAddress",
          "type": "address"
        },
        {
          "internalType": "address",
          "name": "validatorAddress",
          "type": "address"
        }
      ],
      "stateMutability": "nonpayable",
      "type": "constructor"
    },
    {
      "anonymous": false,
      "inputs": [
        {
          "indexed": false,
          "internalType": "uint256",
          "name": "id",
          "type": "uint256"
        },
        {
          "indexed": false,
          "internalType": "address",
          "name": "reporter",
          "type": "address"
        },
        {
          "indexed": false,
          "internalType": "uint256",
          "name": "reportCount",
          "type": "uint256"
        }
      ],
      "name": "ResourceReported",
      "type": "event"
    },
    {
      "anonymous": false,
      "inputs": [
        {
          "indexed": false,
          "internalType": "uint256",
          "name": "id",
          "type": "uint256"
        },
        {
          "indexed": false,
          "internalType": "string",
          "name": "name",
          "type": "string"
        },
        {
          "indexed": false,
          "internalType": "string",
          "name": "url",
          "type": "string"
        },
        {
          "indexed": false,
          "internalType": "address",
          "name": "uploader",
          "type": "address"
        }
      ],
      "name": "ResourceUploaded",
      "type": "event"
    },
    {
      "anonymous": false,
      "inputs": [
        {
          "indexed": false,
          "internalType": "uint256",
          "name": "id",
          "type": "uint256"
        },
        {
          "indexed": false,
          "internalType": "address",
          "name": "upvoter",
          "type": "address"
        },
        {
          "indexed": false,
          "internalType": "uint256",
          "name": "upvoteCount",
          "type": "uint256"
        }
      ],
      "name": "ResourceUpvoted",
      "type": "event"
    },
    {
      "anonymous": false,
      "inputs": [
        {
          "indexed": false,
          "internalType": "uint256",
          "name": "id",
          "type": "uint256"
        },
        {
          "indexed": false,
          "internalType": "address",
          "name": "validator",
          "type": "address"
        }
      ],
      "name": "ResourceValidated",
      "type": "event"
    },
    {
      "anonymous": false,
      "inputs": [
        {
          "indexed": true,
          "internalType": "address",
          "name": "user",
          "type": "address"
        },
        {
          "indexed": false,
          "internalType": "uint256",
          "name": "amount",
          "type": "uint256"
        }
      ],
      "name": "TokensRewarded",
      "type": "event"
    },
    {
      "inputs": [],
      "name": "token",
      "outputs": [
        {
          "internalType": "contract AcademicToken",
          "name": "",
          "type": "address"
        }
      ],
      "stateMutability": "view",
      "type": "function"
    },
    {
      "inputs": [],
      "name": "validator",
      "outputs": [
        {
          "internalType": "contract Validator",
          "name": "",
          "type": "address"
        }
      ],
      "stateMutability": "view",
      "type": "function"
    },
    {
      "inputs": [
        {
          "internalType": "string",
          "name": "name",
          "type": "string"
        },
        {
          "internalType": "string",
          "name": "url",
          "type": "string"
        }
      ],
      "name": "uploadResource",
      "outputs": [],
      "stateMutability": "nonpayable",
      "type": "function"
    },
    {
      "inputs": [
        {
          "internalType": "uint256",
          "name": "id",
          "type": "uint256"
        }
      ],
      "name": "validateResource",
      "outputs": [],
      "stateMutability": "nonpayable",
      "type": "function"
    },
    {
      "inputs": [
        {
          "internalType": "uint256",
          "name": "id",
          "type": "uint256"
        }
      ],
      "name": "upvoteResource",
      "outputs": [],
      "stateMutability": "nonpayable",
      "type": "function"
    },
    {
      "inputs": [
        {
          "internalType": "uint256",
          "name": "id",
          "type": "uint256"
        }
      ],
      "name": "reportResource",
      "outputs": [],
      "stateMutability": "nonpayable",
      "type": "function"
    },
    {
      "inputs": [
        {
          "internalType": "uint256",
          "name": "id",
          "type": "uint256"
        }
      ],
      "name": "getResource",
      "outputs": [
        {
          "components": [
            {
              "internalType": "uint256",
              "name": "id",
              "type": "uint256"
            },
            {
              "internalType": "string",
              "name": "name",
              "type": "string"
            },
            {
              "internalType": "string",
              "name": "url",
              "type": "string"
            },
            {
              "internalType": "address",
              "name": "uploader",
              "type": "address"
            },
            {
              "internalType": "uint256",
              "name": "upvotes",
              "type": "uint256"
            },
            {
              "internalType": "uint256",
              "name": "reports",
              "type": "uint256"
            },
            {
              "internalType": "bool",
              "name": "validated",
              "type": "bool"
            }
          ],
          "internalType": "struct AcademicResources.Resource",
          "name": "",
          "type": "tuple"
        }
      ],
      "stateMutability": "view",
      "type": "function"
    }
  ],
  "bytecode": "0x608060405260016003553480156200001657600080fd5b5060405162001fdc38038062001fdc83398181016040528101906200003c9190620000dc565b816000806101000a81548173ffffffffffffffffffffffffffffffffffffffff021916908373ffffffffffffffffffffffffffffffffffffffff16021790555080600160006101000a81548173ffffffffffffffffffffffffffffffffffffffff021916908373ffffffffffffffffffffffffffffffffffffffff16021790555050506200016b565b600081519050620000d68162000151565b92915050565b60008060408385031215620000f057600080fd5b60006200010085828601620000c5565b92505060206200011385828601620000c5565b9150509250929050565b60006200012a8262000131565b9050919050565b600073ffffffffffffffffffffffffffffffffffffffff82169050919050565b6200015c816200011d565b81146200016857600080fd5b50565b611e61806200017b6000396000f3fe608060405234801561001057600080fd5b506004361061007d5760003560e01c806354248d421161005b57806354248d42146100ec578063a34fcf1f14610108578063be7fded014610124578063fc0c546a146101405761007d565b80631e8fca2d146100825780633a5381b5146100b25780634e759dfa146100d0575b600080fd5b61009c60048036038101906100979190611504565b61015e565b6040516100a991906119da565b60405180910390f35b6100ba61042b565b6040516100c791906118ff565b60405180910390f35b6100ea60048036038101906100e59190611504565b610451565b005b61010660048036038101906101019190611504565b6108b6565b005b610122600480360381019061011d9190611504565b610d70565b005b61013e60048036038101906101399190611498565b610f12565b005b610148611131565b60405161015591906118e4565b60405180910390f35b6101666112d0565b60005b6002805490508110156103ea5782600282815481106101b1577f4e487b7100000000000000000000000000000000000000000000000000000000600052603260045260246000fd5b90600052602060002090600702016000015414156103d75760028181548110610203577f4e487b7100000000000000000000000000000000000000000000000000000000600052603260045260246000fd5b90600052602060002090600702016040518060e00160405290816000820154815260200160018201805461023690611cb5565b80601f016020809104026020016040519081016040528092919081815260200182805461026290611cb5565b80156102af5780601f10610284576101008083540402835291602001916102af565b820191906000526020600020905b81548152906001019060200180831161029257829003601f168201915b505050505081526020016002820180546102c890611cb5565b80601f01602080910402602001604051908101604052809291908181526020018280546102f490611cb5565b80156103415780601f1061031657610100808354040283529160200191610341565b820191906000526020600020905b81548152906001019060200180831161032457829003601f168201915b505050505081526020016003820160009054906101000a900473ffffffffffffffffffffffffffffffffffffffff1673ffffffffffffffffffffffffffffffffffffffff1673ffffffffffffffffffffffffffffffffffffffff16815260200160048201548152602001600582015481526020016006820160009054906101000a900460ff161515151581525050915050610426565b80806103e290611ce7565b915050610169565b506040517f08c379a000000000000000000000000000000000000000000000000000000000815260040161041d906119ba565b60405180910390fd5b919050565b600160009054906101000a900473ffffffffffffffffffffffffffffffffffffffff1681565b60005b60028054905081101561087757816002828154811061049c577f4e487b7100000000000000000000000000000000000000000000000000000000600052603260045260246000fd5b906000526020600020906007020160000154141561086457600281815481106104ee577f4e487b7100000000000000000000000000000000000000000000000000000000600052603260045260246000fd5b906000526020600020906007020160060160009054906101000a900460ff1661054c576040517f08c379a00000000000000000000000000000000000000000000000000000000081526004016105439061199a565b60405180910390fd5b60028181548110610586577f4e487b7100000000000000000000000000000000000000000000000000000000600052603260045260246000fd5b906000526020600020906007020160040160008154809291906105a890611ce7565b91905055507f1cd44d2d873ab12bc74a81ca2286675a9ebd0e68588a5a5dbe5c091837be759c82336002848154811061060a577f4e487b7100000000000000000000000000000000000000000000000000000000600052603260045260246000fd5b90600052602060002090600702016004015460405161062b93929190611a40565b60405180910390a1600061068960028381548110610672577f4e487b7100000000000000000000000000000000000000000000000000000000600052603260045260246000fd5b906000526020600020906007020160040154611155565b905060008054906101000a900473ffffffffffffffffffffffffffffffffffffffff1673ffffffffffffffffffffffffffffffffffffffff1663a9059cbb60028481548110610701577f4e487b7100000000000000000000000000000000000000000000000000000000600052603260045260246000fd5b906000526020600020906007020160030160009054906101000a900473ffffffffffffffffffffffffffffffffffffffff16836040518363ffffffff1660e01b81526004016107519291906118bb565b602060405180830381600087803b15801561076b57600080fd5b505af115801561077f573d6000803e3d6000fd5b505050506040513d601f19601f820116820180604052508101906107a3919061146f565b50600282815481106107de577f4e487b7100000000000000000000000000000000000000000000000000000000600052603260045260246000fd5b906000526020600020906007020160030160009054906101000a900473ffffffffffffffffffffffffffffffffffffffff1673ffffffffffffffffffffffffffffffffffffffff167f0d3ecba324ef5a283bcbd5d1a966cab18661432ab3575740c588f7a0144b0dfa8260405161085591906119fc565b60405180910390a250506108b3565b808061086f90611ce7565b915050610454565b506040517f08c379a00000000000000000000000000000000000000000000000000000000081526004016108aa906119ba565b60405180910390fd5b50565b600160009054906101000a900473ffffffffffffffffffffffffffffffffffffffff1673ffffffffffffffffffffffffffffffffffffffff1663facd743b336040518263ffffffff1660e01b815260040161091191906118a0565b60206040518083038186803b15801561092957600080fd5b505afa15801561093d573d6000803e3d6000fd5b505050506040513d601f19601f82011682018060405250810190610961919061146f565b6109a0576040517f08c379a00000000000000000000000000000000000000000000000000000000081526004016109979061197a565b60405180910390fd5b60005b600280549050811015610d315781600282815481106109eb577f4e487b7100000000000000000000000000000000000000000000000000000000600052603260045260246000fd5b9060005260206000209060070201600001541415610d1e5760028181548110610a3d577f4e487b7100000000000000000000000000000000000000000000000000000000600052603260045260246000fd5b906000526020600020906007020160060160009054906101000a900460ff1615610a9c576040517f08c379a0000000000000000000000000000000000000000000000000000000008152600401610a939061191a565b60405180910390fd5b600160028281548110610ad8577f4e487b7100000000000000000000000000000000000000000000000000000000600052603260045260246000fd5b906000526020600020906007020160060160006101000a81548160ff0219169083151502179055506000610b0a611219565b905060008054906101000a900473ffffffffffffffffffffffffffffffffffffffff1673ffffffffffffffffffffffffffffffffffffffff1663a9059cbb60028481548110610b82577f4e487b7100000000000000000000000000000000000000000000000000000000600052603260045260246000fd5b906000526020600020906007020160030160009054906101000a900473ffffffffffffffffffffffffffffffffffffffff16836040518363ffffffff1660e01b8152600401610bd29291906118bb565b602060405180830381600087803b158015610bec57600080fd5b505af1158015610c00573d6000803e3d6000fd5b505050506040513d601f19601f82011682018060405250810190610c24919061146f565b5060028281548110610c5f577f4e487b7100000000000000000000000000000000000000000000000000000000600052603260045260246000fd5b906000526020600020906007020160030160009054906101000a900473ffffffffffffffffffffffffffffffffffffffff1673ffffffffffffffffffffffffffffffffffffffff167f0d3ecba324ef5a283bcbd5d1a966cab18661432ab3575740c588f7a0144b0dfa82604051610cd691906119fc565b60405180910390a27f9bef01a04d7bff9d6bf7608edb379b42e89c19c3805d1b55435c0ea76b58bbff8333604051610d0f929190611a17565b60405180910390a15050610d6d565b8080610d2990611ce7565b9150506109a3565b506040517f08c379a0000000000000000000000000000000000000000000000000000000008152600401610d64906119ba565b60405180910390fd5b50565b60005b600280549050811015610ed3578160028281548110610dbb577f4e487b7100000000000000000000000000000000000000000000000000000000600052603260045260246000fd5b9060005260206000209060070201600001541415610ec05760028181548110610e0d577f4e487b7100000000000000000000000000000000000000000000000000000000600052603260045260246000fd5b90600052602060002090600702016005016000815480929190610e2f90611ce7565b91905055507f44c008878b9c90cf7b4617fdb2fd8ba37dadbfdd0774e015992889934a4e4974823360028481548110610e91577f4e487b7100000000000000000000000000000000000000000000000000000000600052603260045260246000fd5b906000526020600020906007020160050154604051610eb293929190611a40565b60405180910390a150610f0f565b8080610ecb90611ce7565b915050610d73565b506040517f08c379a0000000000000000000000000000000000000000000000000000000008152600401610f06906119ba565b60405180910390fd5b50565b6000825111610f56576040517f08c379a0000000000000000000000000000000000000000000000000000000008152600401610f4d9061193a565b60405180910390fd5b6000815111610f9a576040517f08c379a0000000000000000000000000000000000000000000000000000000008152600401610f919061195a565b60405180910390fd5b60026040518060e0016040528060035481526020018481526020018381526020013373ffffffffffffffffffffffffffffffffffffffff168152602001600081526020016000815260200160001515815250908060018154018082558091505060019003906000526020600020906007020160009091909190915060008201518160000155602082015181600101908051906020019061103b929190611325565b506040820151816002019080519060200190611058929190611325565b5060608201518160030160006101000a81548173ffffffffffffffffffffffffffffffffffffffff021916908373ffffffffffffffffffffffffffffffffffffffff1602179055506080820151816004015560a0820151816005015560c08201518160060160006101000a81548160ff02191690831515021790555050507ff3d3a5532c67b1c6215d25f3cf6f5743b00c0da8f605508a61407a51164461f260035483833360405161110d9493929190611a77565b60405180910390a16003600081548092919061112890611ce7565b91905055505050565b60008054906101000a900473ffffffffffffffffffffffffffffffffffffffff1681565b60008060008054906101000a900473ffffffffffffffffffffffffffffffffffffffff1673ffffffffffffffffffffffffffffffffffffffff166318160ddd6040518163ffffffff1660e01b815260040160206040518083038186803b1580156111be57600080fd5b505afa1580156111d2573d6000803e3d6000fd5b505050506040513d601f19601f820116820180604052508101906111f6919061152d565b905082612710826112079190611b58565b6112119190611b89565b915050919050565b60008060008054906101000a900473ffffffffffffffffffffffffffffffffffffffff1673ffffffffffffffffffffffffffffffffffffffff166318160ddd6040518163ffffffff1660e01b815260040160206040518083038186803b15801561128257600080fd5b505afa158015611296573d6000803e3d6000fd5b505050506040513d601f19601f820116820180604052508101906112ba919061152d565b90506103e8816112ca9190611b58565b91505090565b6040518060e00160405280600081526020016060815260200160608152602001600073ffffffffffffffffffffffffffffffffffffffff16815260200160008152602001600081526020016000151581525090565b82805461133190611cb5565b90600052602060002090601f016020900481019282611353576000855561139a565b82601f1061136c57805160ff191683800117855561139a565b8280016001018555821561139a579182015b8281111561139957825182559160200191906001019061137e565b5b5090506113a791906113ab565b5090565b5b808211156113c45760008160009055506001016113ac565b5090565b60006113db6113d684611afb565b611aca565b9050828152602081018484840111156113f357600080fd5b6113fe848285611c73565b509392505050565b60008151905061141581611dfd565b92915050565b600082601f83011261142c57600080fd5b813561143c8482602086016113c8565b91505092915050565b60008135905061145481611e14565b92915050565b60008151905061146981611e14565b92915050565b60006020828403121561148157600080fd5b600061148f84828501611406565b91505092915050565b600080604083850312156114ab57600080fd5b600083013567ffffffffffffffff8111156114c557600080fd5b6114d18582860161141b565b925050602083013567ffffffffffffffff8111156114ee57600080fd5b6114fa8582860161141b565b9150509250929050565b60006020828403121561151657600080fd5b600061152484828501611445565b91505092915050565b60006020828403121561153f57600080fd5b600061154d8482850161145a565b91505092915050565b61155f81611be3565b82525050565b61156e81611be3565b82525050565b61157d81611bf5565b82525050565b61158c81611c2b565b82525050565b61159b81611c4f565b82525050565b60006115ac82611b2b565b6115b68185611b36565b93506115c6818560208601611c82565b6115cf81611dec565b840191505092915050565b60006115e582611b2b565b6115ef8185611b47565b93506115ff818560208601611c82565b61160881611dec565b840191505092915050565b6000611620601d83611b47565b91507f5265736f7572636520697320616c72656164792076616c6964617465640000006000830152602082019050919050565b6000611660601983611b47565b91507f5265736f75726365206e616d65206973207265717569726564000000000000006000830152602082019050919050565b60006116a0601883611b47565b91507f5265736f757263652055524c20697320726571756972656400000000000000006000830152602082019050919050565b60006116e0602683611b47565b91507f4f6e6c792076616c696461746f72732063616e2076616c69646174652072657360008301527f6f757263657300000000000000000000000000000000000000000000000000006020830152604082019050919050565b6000611746602d83611b47565b91507f5265736f75726365206d7573742062652076616c69646174656420746f20726560008301527f6365697665207570766f746573000000000000000000000000000000000000006020830152604082019050919050565b60006117ac601283611b47565b91507f5265736f75726365206e6f7420666f756e6400000000000000000000000000006000830152602082019050919050565b600060e0830160008301516117f76000860182611882565b506020830151848203602086015261180f82826115a1565b9150506040830151848203604086015261182982826115a1565b915050606083015161183e6060860182611556565b5060808301516118516080860182611882565b5060a083015161186460a0860182611882565b5060c083015161187760c0860182611574565b508091505092915050565b61188b81611c21565b82525050565b61189a81611c21565b82525050565b60006020820190506118b56000830184611565565b92915050565b60006040820190506118d06000830185611565565b6118dd6020830184611891565b9392505050565b60006020820190506118f96000830184611583565b92915050565b60006020820190506119146000830184611592565b92915050565b6000602082019050818103600083015261193381611613565b9050919050565b6000602082019050818103600083015261195381611653565b9050919050565b6000602082019050818103600083015261197381611693565b9050919050565b60006020820190508181036000830152611993816116d3565b9050919050565b600060208201905081810360008301526119b381611739565b9050919050565b600060208201905081810360008301526119d38161179f565b9050919050565b600060208201905081810360008301526119f481846117df565b905092915050565b6000602082019050611a116000830184611891565b92915050565b6000604082019050611a2c6000830185611891565b611a396020830184611565565b9392505050565b6000606082019050611a556000830186611891565b611a626020830185611565565b611a6f6040830184611891565b949350505050565b6000608082019050611a8c6000830187611891565b8181036020830152611a9e81866115da565b90508181036040830152611ab281856115da565b9050611ac16060830184611565565b95945050505050565b6000604051905081810181811067ffffffffffffffff82111715611af157611af0611dbd565b5b8060405250919050565b600067ffffffffffffffff821115611b1657611b15611dbd565b5b601f19601f8301169050602081019050919050565b600081519050919050565b600082825260208201905092915050565b600082825260208201905092915050565b6000611b6382611c21565b9150611b6e83611c21565b925082611b7e57611b7d611d5f565b5b828204905092915050565b6000611b9482611c21565b9150611b9f83611c21565b9250817fffffffffffffffffffffffffffffffffffffffffffffffffffffffffffffffff0483118215151615611bd857611bd7611d30565b5b828202905092915050565b6000611bee82611c01565b9050919050565b60008115159050919050565b600073ffffffffffffffffffffffffffffffffffffffff82169050919050565b6000819050919050565b6000611c3682611c3d565b9050919050565b6000611c4882611c01565b9050919050565b6000611c5a82611c61565b9050919050565b6000611c6c82611c01565b9050919050565b82818337600083830152505050565b60005b83811015611ca0578082015181840152602081019050611c85565b83811115611caf576000848401525b50505050565b60006002820490506001821680611ccd57607f821691505b60208210811415611ce157611ce0611d8e565b5b50919050565b6000611cf282611c21565b91507fffffffffffffffffffffffffffffffffffffffffffffffffffffffffffffffff821415611d2557611d24611d30565b5b600182019050919050565b7f4e487b7100000000000000000000000000000000000000000000000000000000600052601160045260246000fd5b7f4e487b7100000000000000000000000000000000000000000000000000000000600052601260045260246000fd5b7f4e487b7100000000000000000000000000000000000000000000000000000000600052602260045260246000fd5b7f4e487b7100000000000000000000000000000000000000000000000000000000600052604160045260246000fd5b6000601f19601f8301169050919050565b611e0681611bf5565b8114611e1157600080fd5b50565b611e1d81611c21565b8114611e2857600080fd5b5056fea26469706673582212202c831afc2ed2caca46d2927dad21884207c69022a838de0447219cae2ed3c3d864736f6c63430008000033",
  "immutableReferences": {},
  "source": "// SPDX-License-Identifier: MIT\r\npragma solidity ^0.8.0;\r\n\r\nimport \"./AcademicToken.sol\";\r\nimport \"./Validator.sol\";\r\n\r\ncontract AcademicResources {\r\n    AcademicToken public token;\r\n    Validator public validator;\r\n\r\n    // Resource structure\r\n    struct Resource {\r\n        uint256 id;\r\n        string name;\r\n        string url;\r\n        address uploader;\r\n        uint256 upvotes;\r\n        uint256 reports;\r\n        bool validated; // Track if the resource is validated\r\n    }\r\n\r\n    // List of resources\r\n    Resource[] private resources;\r\n\r\n    // Resource ID tracker\r\n    uint256 private nextResourceId = 1;\r\n\r\n    // Events\r\n    event ResourceUploaded(uint256 id, string name, string url, address uploader);\r\n    event ResourceValidated(uint256 id, address validator);\r\n    event ResourceUpvoted(uint256 id, address upvoter, uint256 upvoteCount);\r\n    event ResourceReported(uint256 id, address reporter, uint256 reportCount);\r\n    event TokensRewarded(address indexed user, uint256 amount);\r\n\r\n    constructor(address tokenAddress, address validatorAddress) {\r\n        token = AcademicToken(tokenAddress);\r\n        validator = Validator(validatorAddress);\r\n    }\r\n\r\n    // Upload a new resource\r\n    function uploadResource(string memory name, string memory url) public {\r\n        require(bytes(name).length > 0, \"Resource name is required\");\r\n        require(bytes(url).length > 0, \"Resource URL is required\");\r\n\r\n        resources.push(Resource({\r\n            id: nextResourceId,\r\n            name: name,\r\n            url: url,\r\n            uploader: msg.sender,\r\n            upvotes: 0,\r\n            reports: 0,\r\n            validated: false\r\n        }));\r\n\r\n        emit ResourceUploaded(nextResourceId, name, url, msg.sender);\r\n        nextResourceId++;\r\n    }\r\n\r\n    // Validate a resource (only validators can call this function)\r\n    function validateResource(uint256 id) public {\r\n        require(validator.isValidator(msg.sender), \"Only validators can validate resources\");\r\n\r\n        for (uint256 i = 0; i < resources.length; i++) {\r\n            if (resources[i].id == id) {\r\n                require(!resources[i].validated, \"Resource is already validated\");\r\n                resources[i].validated = true;\r\n\r\n                // Reward uploader after validation\r\n                uint256 reward = calculateUploadReward();\r\n                token.transfer(resources[i].uploader, reward);\r\n                emit TokensRewarded(resources[i].uploader, reward);\r\n\r\n                emit ResourceValidated(id, msg.sender);\r\n                return;\r\n            }\r\n        }\r\n        revert(\"Resource not found\");\r\n    }\r\n\r\n    // Upvote a resource (only validated resources can be upvoted)\r\n    function upvoteResource(uint256 id) public {\r\n        for (uint256 i = 0; i < resources.length; i++) {\r\n            if (resources[i].id == id) {\r\n                require(resources[i].validated, \"Resource must be validated to receive upvotes\");\r\n                resources[i].upvotes++;\r\n                emit ResourceUpvoted(id, msg.sender, resources[i].upvotes);\r\n\r\n                // Reward uploader for upvotes\r\n                uint256 reward = calculateUpvoteReward(resources[i].upvotes);\r\n                token.transfer(resources[i].uploader, reward);\r\n                emit TokensRewarded(resources[i].uploader, reward);\r\n                return;\r\n            }\r\n        }\r\n        revert(\"Resource not found\");\r\n    }\r\n\r\n    // Report a resource\r\n    function reportResource(uint256 id) public {\r\n        for (uint256 i = 0; i < resources.length; i++) {\r\n            if (resources[i].id == id) {\r\n                resources[i].reports++;\r\n                emit ResourceReported(id, msg.sender, resources[i].reports);\r\n                return;\r\n            }\r\n        }\r\n        revert(\"Resource not found\");\r\n    }\r\n\r\n    // Calculate upload reward\r\n    function calculateUploadReward() internal view returns (uint256) {\r\n        uint256 circulation = token.totalSupply();\r\n        return circulation / 1000; // Example: flat 0.1% of total supply\r\n    }\r\n\r\n    // Calculate upvote reward\r\n    function calculateUpvoteReward(uint256 upvotes) internal view returns (uint256) {\r\n        uint256 circulation = token.totalSupply();\r\n        return (circulation / 10000) * upvotes; // Example: 0.01% per upvote\r\n    }\r\n\r\n    // Get a resource by ID\r\n    function getResource(uint256 id) public view returns (Resource memory) {\r\n        for (uint256 i = 0; i < resources.length; i++) {\r\n            if (resources[i].id == id) {\r\n                return resources[i];\r\n            }\r\n        }\r\n        revert(\"Resource not found\");\r\n    }\r\n}\r\n",
  "sourcePath": "C:\\Users\\omaho\\CS4207-Blockchain\\contracts\\AcademicResources.sol",
  "compiler": {
    "name": "solc",
    "version": "0.8.0+commit.c7dfd78e.Emscripten.clang"
  },
  "schemaVersion": "3.4.16",
  "updatedAt": "2024-12-07T17:52:08.499Z",
  "devdoc": {
    "kind": "dev",
    "methods": {},
    "version": 1
  },
  "userdoc": {
    "kind": "user",
    "methods": {},
    "version": 1
  }
}