{
  "contractName": "AcademicResources",
  "abi": [
    {
      "anonymous": false,
      "inputs": [
        {
          "indexed": false,
          "internalType": "string",
          "name": "ipfsHash",
          "type": "string"
        },
        {
          "indexed": false,
          "internalType": "address",
          "name": "owner",
          "type": "address"
        },
        {
          "indexed": false,
          "internalType": "string",
          "name": "title",
          "type": "string"
        }
      ],
      "name": "ResourceUploaded",
      "type": "event"
    },
    {
      "inputs": [
        {
          "internalType": "uint256",
          "name": "",
          "type": "uint256"
        }
      ],
      "name": "resources",
      "outputs": [
        {
          "internalType": "string",
          "name": "ipfsHash",
          "type": "string"
        },
        {
          "internalType": "address",
          "name": "owner",
          "type": "address"
        },
        {
          "internalType": "string",
          "name": "title",
          "type": "string"
        }
      ],
      "stateMutability": "view",
      "type": "function",
      "constant": true
    },
    {
      "inputs": [
        {
          "internalType": "string",
          "name": "_ipfsHash",
          "type": "string"
        },
        {
          "internalType": "string",
          "name": "_title",
          "type": "string"
        }
      ],
      "name": "uploadResource",
      "outputs": [],
      "stateMutability": "nonpayable",
      "type": "function"
    },
    {
      "inputs": [
        {
          "internalType": "uint256",
          "name": "_index",
          "type": "uint256"
        }
      ],
      "name": "getResource",
      "outputs": [
        {
          "internalType": "string",
          "name": "",
          "type": "string"
        },
        {
          "internalType": "address",
          "name": "",
          "type": "address"
        },
        {
          "internalType": "string",
          "name": "",
          "type": "string"
        }
      ],
      "stateMutability": "view",
      "type": "function",
      "constant": true
    }
  ],
  "bytecode": "0x608060405234801561000f575f80fd5b50610b368061001d5f395ff3fe608060405234801561000f575f80fd5b506004361061003f575f3560e01c80631e8fca2d14610043578063244d6daa14610075578063be7fded0146100a7575b5f80fd5b61005d60048036038101906100589190610531565b6100c3565b60405161006c93929190610625565b60405180910390f35b61008f600480360381019061008a9190610531565b610285565b60405161009e93929190610625565b60405180910390f35b6100c160048036038101906100bc9190610794565b6103e4565b005b60605f60605f8085815481106100dc576100db61080a565b5b905f5260205f2090600302016040518060600160405290815f8201805461010290610864565b80601f016020809104026020016040519081016040528092919081815260200182805461012e90610864565b80156101795780601f1061015057610100808354040283529160200191610179565b820191905f5260205f20905b81548152906001019060200180831161015c57829003601f168201915b50505050508152602001600182015f9054906101000a900473ffffffffffffffffffffffffffffffffffffffff1673ffffffffffffffffffffffffffffffffffffffff1673ffffffffffffffffffffffffffffffffffffffff1681526020016002820180546101e790610864565b80601f016020809104026020016040519081016040528092919081815260200182805461021390610864565b801561025e5780601f106102355761010080835404028352916020019161025e565b820191905f5260205f20905b81548152906001019060200180831161024157829003601f168201915b5050505050815250509050805f015181602001518260400151935093509350509193909250565b5f8181548110610293575f80fd5b905f5260205f2090600302015f91509050805f0180546102b290610864565b80601f01602080910402602001604051908101604052809291908181526020018280546102de90610864565b80156103295780601f1061030057610100808354040283529160200191610329565b820191905f5260205f20905b81548152906001019060200180831161030c57829003601f168201915b505050505090806001015f9054906101000a900473ffffffffffffffffffffffffffffffffffffffff169080600201805461036390610864565b80601f016020809104026020016040519081016040528092919081815260200182805461038f90610864565b80156103da5780601f106103b1576101008083540402835291602001916103da565b820191905f5260205f20905b8154815290600101906020018083116103bd57829003601f168201915b5050505050905083565b5f60405180606001604052808481526020013373ffffffffffffffffffffffffffffffffffffffff16815260200183815250908060018154018082558091505060019003905f5260205f2090600302015f909190919091505f820151815f01908161044f9190610a31565b506020820151816001015f6101000a81548173ffffffffffffffffffffffffffffffffffffffff021916908373ffffffffffffffffffffffffffffffffffffffff16021790555060408201518160020190816104ab9190610a31565b5050507ff610f53aabb032c9ad117cb6c74c3821c137969cffaddcefd27d9ca30551ee368233836040516104e193929190610625565b60405180910390a15050565b5f604051905090565b5f80fd5b5f80fd5b5f819050919050565b610510816104fe565b811461051a575f80fd5b50565b5f8135905061052b81610507565b92915050565b5f60208284031215610546576105456104f6565b5b5f6105538482850161051d565b91505092915050565b5f81519050919050565b5f82825260208201905092915050565b5f5b83811015610593578082015181840152602081019050610578565b5f8484015250505050565b5f601f19601f8301169050919050565b5f6105b88261055c565b6105c28185610566565b93506105d2818560208601610576565b6105db8161059e565b840191505092915050565b5f73ffffffffffffffffffffffffffffffffffffffff82169050919050565b5f61060f826105e6565b9050919050565b61061f81610605565b82525050565b5f6060820190508181035f83015261063d81866105ae565b905061064c6020830185610616565b818103604083015261065e81846105ae565b9050949350505050565b5f80fd5b5f80fd5b7f4e487b71000000000000000000000000000000000000000000000000000000005f52604160045260245ffd5b6106a68261059e565b810181811067ffffffffffffffff821117156106c5576106c4610670565b5b80604052505050565b5f6106d76104ed565b90506106e3828261069d565b919050565b5f67ffffffffffffffff82111561070257610701610670565b5b61070b8261059e565b9050602081019050919050565b828183375f83830152505050565b5f610738610733846106e8565b6106ce565b9050828152602081018484840111156107545761075361066c565b5b61075f848285610718565b509392505050565b5f82601f83011261077b5761077a610668565b5b813561078b848260208601610726565b91505092915050565b5f80604083850312156107aa576107a96104f6565b5b5f83013567ffffffffffffffff8111156107c7576107c66104fa565b5b6107d385828601610767565b925050602083013567ffffffffffffffff8111156107f4576107f36104fa565b5b61080085828601610767565b9150509250929050565b7f4e487b71000000000000000000000000000000000000000000000000000000005f52603260045260245ffd5b7f4e487b71000000000000000000000000000000000000000000000000000000005f52602260045260245ffd5b5f600282049050600182168061087b57607f821691505b60208210810361088e5761088d610837565b5b50919050565b5f819050815f5260205f209050919050565b5f6020601f8301049050919050565b5f82821b905092915050565b5f600883026108f07fffffffffffffffffffffffffffffffffffffffffffffffffffffffffffffffff826108b5565b6108fa86836108b5565b95508019841693508086168417925050509392505050565b5f819050919050565b5f61093561093061092b846104fe565b610912565b6104fe565b9050919050565b5f819050919050565b61094e8361091b565b61096261095a8261093c565b8484546108c1565b825550505050565b5f90565b61097661096a565b610981818484610945565b505050565b5b818110156109a4576109995f8261096e565b600181019050610987565b5050565b601f8211156109e9576109ba81610894565b6109c3846108a6565b810160208510156109d2578190505b6109e66109de856108a6565b830182610986565b50505b505050565b5f82821c905092915050565b5f610a095f19846008026109ee565b1980831691505092915050565b5f610a2183836109fa565b9150826002028217905092915050565b610a3a8261055c565b67ffffffffffffffff811115610a5357610a52610670565b5b610a5d8254610864565b610a688282856109a8565b5f60209050601f831160018114610a99575f8415610a87578287015190505b610a918582610a16565b865550610af8565b601f198416610aa786610894565b5f5b82811015610ace57848901518255600182019150602085019450602081019050610aa9565b86831015610aeb5784890151610ae7601f8916826109fa565b8355505b6001600288020188555050505b50505050505056fea26469706673582212204cff52d7527c3cfbf02bc367a635fc2f84a7f4b8e687f3a0f93963def1d397a264736f6c63430008150033",
  "immutableReferences": {},
  "source": "// SPDX-License-Identifier: MIT\r\npragma solidity ^0.8.21;\r\n\r\ncontract AcademicResources {\r\n    struct Resource {\r\n        string ipfsHash;\r\n        address owner;\r\n        string title;\r\n    }\r\n\r\n    Resource[] public resources;\r\n\r\n    event ResourceUploaded(string ipfsHash, address owner, string title);\r\n\r\n    function uploadResource(string memory _ipfsHash, string memory _title) public {\r\n        resources.push(Resource(_ipfsHash, msg.sender, _title));\r\n        emit ResourceUploaded(_ipfsHash, msg.sender, _title);\r\n    }\r\n\r\n    function getResource(uint _index) public view returns (string memory, address, string memory) {\r\n        Resource memory resource = resources[_index];\r\n        return (resource.ipfsHash, resource.owner, resource.title);\r\n    }\r\n}\r\n",
  "sourcePath": "C:\\Users\\brend\\OneDrive\\Desktop\\BLOCKCHAIN_2\\CS4207-Blockchain\\contracts\\AcademicResources.sol",
  "compiler": {
    "name": "solc",
    "version": "0.8.21+commit.d9974bed.Emscripten.clang"
  },
  "schemaVersion": "3.4.16",
  "updatedAt": "2024-12-03T18:50:13.932Z",
  "networkType": "ethereum",
  "devdoc": {
    "kind": "dev",
    "methods": {},
    "version": 1
  },
  "userdoc": {
    "kind": "user",
    "methods": {},
    "version": 1
  }
}