{
  "contractName": "AcademicResources",
  "abi": [
    {
      "inputs": [
        {
          "internalType": "address[]",
          "name": "initialValidators",
          "type": "address[]"
        },
        {
          "internalType": "uint256",
          "name": "approvalsNeeded",
          "type": "uint256"
        }
      ],
      "stateMutability": "nonpayable",
      "type": "constructor"
    },
    {
      "anonymous": false,
      "inputs": [
        {
          "indexed": false,
          "internalType": "uint256",
          "name": "id",
          "type": "uint256"
        },
        {
          "indexed": false,
          "internalType": "string",
          "name": "name",
          "type": "string"
        },
        {
          "indexed": false,
          "internalType": "bool",
          "name": "approved",
          "type": "bool"
        }
      ],
      "name": "ResourceApproved",
      "type": "event"
    },
    {
      "anonymous": false,
      "inputs": [
        {
          "indexed": false,
          "internalType": "uint256",
          "name": "id",
          "type": "uint256"
        },
        {
          "indexed": false,
          "internalType": "string",
          "name": "name",
          "type": "string"
        },
        {
          "indexed": false,
          "internalType": "string",
          "name": "url",
          "type": "string"
        },
        {
          "indexed": false,
          "internalType": "address",
          "name": "uploader",
          "type": "address"
        }
      ],
      "name": "ResourceUploaded",
      "type": "event"
    },
    {
      "anonymous": false,
      "inputs": [
        {
          "indexed": false,
          "internalType": "uint256",
          "name": "id",
          "type": "uint256"
        },
        {
          "indexed": false,
          "internalType": "address",
          "name": "voter",
          "type": "address"
        },
        {
          "indexed": false,
          "internalType": "bool",
          "name": "voteFor",
          "type": "bool"
        }
      ],
      "name": "ResourceVoted",
      "type": "event"
    },
    {
      "inputs": [
        {
          "internalType": "address",
          "name": "",
          "type": "address"
        }
      ],
      "name": "validators",
      "outputs": [
        {
          "internalType": "bool",
          "name": "",
          "type": "bool"
        }
      ],
      "stateMutability": "view",
      "type": "function",
      "constant": true
    },
    {
      "inputs": [
        {
          "internalType": "string",
          "name": "name",
          "type": "string"
        },
        {
          "internalType": "string",
          "name": "url",
          "type": "string"
        }
      ],
      "name": "uploadResource",
      "outputs": [],
      "stateMutability": "nonpayable",
      "type": "function"
    },
    {
      "inputs": [
        {
          "internalType": "uint256",
          "name": "id",
          "type": "uint256"
        },
        {
          "internalType": "bool",
          "name": "voteFor",
          "type": "bool"
        }
      ],
      "name": "voteOnResource",
      "outputs": [],
      "stateMutability": "nonpayable",
      "type": "function"
    },
    {
      "inputs": [
        {
          "internalType": "uint256",
          "name": "id",
          "type": "uint256"
        }
      ],
      "name": "getResource",
      "outputs": [
        {
          "internalType": "string",
          "name": "",
          "type": "string"
        },
        {
          "internalType": "string",
          "name": "",
          "type": "string"
        },
        {
          "internalType": "address",
          "name": "",
          "type": "address"
        },
        {
          "internalType": "uint256",
          "name": "",
          "type": "uint256"
        },
        {
          "internalType": "uint256",
          "name": "",
          "type": "uint256"
        },
        {
          "internalType": "bool",
          "name": "",
          "type": "bool"
        }
      ],
      "stateMutability": "view",
      "type": "function",
      "constant": true
    },
    {
      "inputs": [],
      "name": "getNextResourceId",
      "outputs": [
        {
          "internalType": "uint256",
          "name": "",
          "type": "uint256"
        }
      ],
      "stateMutability": "view",
      "type": "function",
      "constant": true
    }
  ],
  "bytecode": "0x608060405260016003553480156200001657600080fd5b50604051620015d7380380620015d783398181016040528101906200003c9190620001d7565b60005b8251811015620000f757600160008085848151811062000088577f4e487b7100000000000000000000000000000000000000000000000000000000600052603260045260246000fd5b602002602001015173ffffffffffffffffffffffffffffffffffffffff1673ffffffffffffffffffffffffffffffffffffffff16815260200190815260200160002060006101000a81548160ff0219169083151502179055508080620000ee90620002d2565b9150506200003f565b50806001819055505050620003b2565b60006200011e620001188462000265565b62000231565b905080838252602082019050828560208602820111156200013e57600080fd5b60005b858110156200017257816200015788826200017c565b84526020840193506020830192505060018101905062000141565b5050509392505050565b6000815190506200018d816200037e565b92915050565b600082601f830112620001a557600080fd5b8151620001b784826020860162000107565b91505092915050565b600081519050620001d18162000398565b92915050565b60008060408385031215620001eb57600080fd5b600083015167ffffffffffffffff8111156200020657600080fd5b620002148582860162000193565b92505060206200022785828601620001c0565b9150509250929050565b6000604051905081810181811067ffffffffffffffff821117156200025b576200025a6200034f565b5b8060405250919050565b600067ffffffffffffffff8211156200028357620002826200034f565b5b602082029050602081019050919050565b6000620002a182620002a8565b9050919050565b600073ffffffffffffffffffffffffffffffffffffffff82169050919050565b6000819050919050565b6000620002df82620002c8565b91507fffffffffffffffffffffffffffffffffffffffffffffffffffffffffffffffff82141562000315576200031462000320565b5b600182019050919050565b7f4e487b7100000000000000000000000000000000000000000000000000000000600052601160045260246000fd5b7f4e487b7100000000000000000000000000000000000000000000000000000000600052604160045260246000fd5b620003898162000294565b81146200039557600080fd5b50565b620003a381620002c8565b8114620003af57600080fd5b50565b61121580620003c26000396000f3fe608060405234801561001057600080fd5b50600436106100575760003560e01c80631e8fca2d1461005c5780634fb48d1d14610091578063be7fded0146100ad578063e3260062146100c9578063fa52c7d8146100e7575b600080fd5b61007660048036038101906100719190610af9565b610117565b60405161008896959493929190610d5f565b60405180910390f35b6100ab60048036038101906100a69190610b22565b6103ba565b005b6100c760048036038101906100c29190610a8d565b6106d1565b005b6100d16108f0565b6040516100de9190610e4e565b60405180910390f35b61010160048036038101906100fc9190610a64565b6108fa565b60405161010e9190610d44565b60405180910390f35b606080600080600080600087118015610131575060035487105b610170576040517f08c379a000000000000000000000000000000000000000000000000000000000815260040161016790610e2e565b60405180910390fd5b600060026001896101819190610fc3565b815481106101b8577f4e487b7100000000000000000000000000000000000000000000000000000000600052603260045260246000fd5b90600052602060002090600702016040518060e0016040529081600082015481526020016001820180546101eb90611081565b80601f016020809104026020016040519081016040528092919081815260200182805461021790611081565b80156102645780601f1061023957610100808354040283529160200191610264565b820191906000526020600020905b81548152906001019060200180831161024757829003601f168201915b5050505050815260200160028201805461027d90611081565b80601f01602080910402602001604051908101604052809291908181526020018280546102a990611081565b80156102f65780601f106102cb576101008083540402835291602001916102f6565b820191906000526020600020905b8154815290600101906020018083116102d957829003601f168201915b505050505081526020016003820160009054906101000a900473ffffffffffffffffffffffffffffffffffffffff1673ffffffffffffffffffffffffffffffffffffffff1673ffffffffffffffffffffffffffffffffffffffff16815260200160048201548152602001600582015481526020016006820160009054906101000a900460ff161515151581525050905080602001518160400151826060015183608001518460a001518560c001519650965096509650965096505091939550919395565b6000803373ffffffffffffffffffffffffffffffffffffffff1673ffffffffffffffffffffffffffffffffffffffff16815260200190815260200160002060009054906101000a900460ff16610445576040517f08c379a000000000000000000000000000000000000000000000000000000000815260040161043c90610e0e565b60405180910390fd5b600082118015610456575060035482105b610495576040517f08c379a000000000000000000000000000000000000000000000000000000000815260040161048c90610e2e565b60405180910390fd5b6000803373ffffffffffffffffffffffffffffffffffffffff1673ffffffffffffffffffffffffffffffffffffffff16815260200190815260200160002060009054906101000a900460ff16610520576040517f08c379a000000000000000000000000000000000000000000000000000000000815260040161051790610e0e565b60405180910390fd5b7f6569d5f5b7b55d6d0f92da5f5257421876ffc4a5154a8ddef87a76dcb1dc51db82338360405161055393929190610e69565b60405180910390a16000600260018461056c9190610fc3565b815481106105a3577f4e487b7100000000000000000000000000000000000000000000000000000000600052603260045260246000fd5b9060005260206000209060070201905081156105d8578060040160008154809291906105ce906110b3565b91905055506105f3565b8060050160008154809291906105ed906110b3565b91905055505b6001548160040154106106615760018160060160006101000a81548160ff0219169083151502179055507fe8f4a2280785fe70eb7bcc6114c3262c3040fdb01eca3a70096869e7c8a6321e8382600101600160405161065493929190610ef3565b60405180910390a16106cc565b6001548160050154106106cb5760008160060160006101000a81548160ff0219169083151502179055507fe8f4a2280785fe70eb7bcc6114c3262c3040fdb01eca3a70096869e7c8a6321e838260010160006040516106c293929190610ef3565b60405180910390a15b5b505050565b6000825111610715576040517f08c379a000000000000000000000000000000000000000000000000000000000815260040161070c90610dce565b60405180910390fd5b6000815111610759576040517f08c379a000000000000000000000000000000000000000000000000000000000815260040161075090610dee565b60405180910390fd5b60026040518060e0016040528060035481526020018481526020018381526020013373ffffffffffffffffffffffffffffffffffffffff16815260200160008152602001600081526020016000151581525090806001815401808255809150506001900390600052602060002090600702016000909190919091506000820151816000015560208201518160010190805190602001906107fa92919061091a565b50604082015181600201908051906020019061081792919061091a565b5060608201518160030160006101000a81548173ffffffffffffffffffffffffffffffffffffffff021916908373ffffffffffffffffffffffffffffffffffffffff1602179055506080820151816004015560a0820151816005015560c08201518160060160006101000a81548160ff02191690831515021790555050507ff3d3a5532c67b1c6215d25f3cf6f5743b00c0da8f605508a61407a51164461f26003548383336040516108cc9493929190610ea0565b60405180910390a1600360008154809291906108e7906110b3565b91905055505050565b6000600354905090565b60006020528060005260406000206000915054906101000a900460ff1681565b82805461092690611081565b90600052602060002090601f016020900481019282610948576000855561098f565b82601f1061096157805160ff191683800117855561098f565b8280016001018555821561098f579182015b8281111561098e578251825591602001919060010190610973565b5b50905061099c91906109a0565b5090565b5b808211156109b95760008160009055506001016109a1565b5090565b60006109d06109cb84610f62565b610f31565b9050828152602081018484840111156109e857600080fd5b6109f384828561103f565b509392505050565b600081359050610a0a8161119a565b92915050565b600081359050610a1f816111b1565b92915050565b600082601f830112610a3657600080fd5b8135610a468482602086016109bd565b91505092915050565b600081359050610a5e816111c8565b92915050565b600060208284031215610a7657600080fd5b6000610a84848285016109fb565b91505092915050565b60008060408385031215610aa057600080fd5b600083013567ffffffffffffffff811115610aba57600080fd5b610ac685828601610a25565b925050602083013567ffffffffffffffff811115610ae357600080fd5b610aef85828601610a25565b9150509250929050565b600060208284031215610b0b57600080fd5b6000610b1984828501610a4f565b91505092915050565b60008060408385031215610b3557600080fd5b6000610b4385828601610a4f565b9250506020610b5485828601610a10565b9150509250929050565b610b6781610ff7565b82525050565b610b7681611009565b82525050565b6000610b8782610fa7565b610b918185610fb2565b9350610ba181856020860161104e565b610baa81611189565b840191505092915050565b60008154610bc281611081565b610bcc8186610fb2565b94506001821660008114610be75760018114610bf957610c2c565b60ff1983168652602086019350610c2c565b610c0285610f92565b60005b83811015610c2457815481890152600182019150602081019050610c05565b808801955050505b50505092915050565b6000610c42601983610fb2565b91507f5265736f75726365206e616d65206973207265717569726564000000000000006000830152602082019050919050565b6000610c82601883610fb2565b91507f5265736f757263652055524c20697320726571756972656400000000000000006000830152602082019050919050565b6000610cc2600f83610fb2565b91507f4e6f7420612076616c696461746f7200000000000000000000000000000000006000830152602082019050919050565b6000610d02601383610fb2565b91507f496e76616c6964207265736f75726365204944000000000000000000000000006000830152602082019050919050565b610d3e81611035565b82525050565b6000602082019050610d596000830184610b6d565b92915050565b600060c0820190508181036000830152610d798189610b7c565b90508181036020830152610d8d8188610b7c565b9050610d9c6040830187610b5e565b610da96060830186610d35565b610db66080830185610d35565b610dc360a0830184610b6d565b979650505050505050565b60006020820190508181036000830152610de781610c35565b9050919050565b60006020820190508181036000830152610e0781610c75565b9050919050565b60006020820190508181036000830152610e2781610cb5565b9050919050565b60006020820190508181036000830152610e4781610cf5565b9050919050565b6000602082019050610e636000830184610d35565b92915050565b6000606082019050610e7e6000830186610d35565b610e8b6020830185610b5e565b610e986040830184610b6d565b949350505050565b6000608082019050610eb56000830187610d35565b8181036020830152610ec78186610b7c565b90508181036040830152610edb8185610b7c565b9050610eea6060830184610b5e565b95945050505050565b6000606082019050610f086000830186610d35565b8181036020830152610f1a8185610bb5565b9050610f296040830184610b6d565b949350505050565b6000604051905081810181811067ffffffffffffffff82111715610f5857610f5761115a565b5b8060405250919050565b600067ffffffffffffffff821115610f7d57610f7c61115a565b5b601f19601f8301169050602081019050919050565b60008190508160005260206000209050919050565b600081519050919050565b600082825260208201905092915050565b6000610fce82611035565b9150610fd983611035565b925082821015610fec57610feb6110fc565b5b828203905092915050565b600061100282611015565b9050919050565b60008115159050919050565b600073ffffffffffffffffffffffffffffffffffffffff82169050919050565b6000819050919050565b82818337600083830152505050565b60005b8381101561106c578082015181840152602081019050611051565b8381111561107b576000848401525b50505050565b6000600282049050600182168061109957607f821691505b602082108114156110ad576110ac61112b565b5b50919050565b60006110be82611035565b91507fffffffffffffffffffffffffffffffffffffffffffffffffffffffffffffffff8214156110f1576110f06110fc565b5b600182019050919050565b7f4e487b7100000000000000000000000000000000000000000000000000000000600052601160045260246000fd5b7f4e487b7100000000000000000000000000000000000000000000000000000000600052602260045260246000fd5b7f4e487b7100000000000000000000000000000000000000000000000000000000600052604160045260246000fd5b6000601f19601f8301169050919050565b6111a381610ff7565b81146111ae57600080fd5b50565b6111ba81611009565b81146111c557600080fd5b50565b6111d181611035565b81146111dc57600080fd5b5056fea2646970667358221220efcbf06461ca2b52d851bdfc425c3423226c749a784816629325dfaba789e57764736f6c63430008000033",
  "immutableReferences": {},
  "source": "pragma solidity ^0.8.0;\n\ncontract AcademicResources {\n    struct Resource {\n        uint256 id;\n        string name;\n        string url;\n        address uploader;\n        uint256 votesFor;\n        uint256 votesAgainst;\n        bool approved;\n    }\n\n    mapping(address => bool) public validators;\n    uint256 private requiredApprovals;\n\n    Resource[] private resources;\n\n    event ResourceUploaded(uint256 id, string name, string url, address uploader);\n    event ResourceVoted(uint256 id, address voter, bool voteFor);\n    event ResourceApproved(uint256 id, string name, bool approved);\n\n    modifier onlyValidator() {\n        require(validators[msg.sender], \"Not a validator\");\n        _;\n    }\n\n    uint256 private nextResourceId = 1;\n\n    constructor(address[] memory initialValidators, uint256 approvalsNeeded) {\n        for (uint256 i = 0; i < initialValidators.length; i++) {\n            validators[initialValidators[i]] = true;\n        }\n        requiredApprovals = approvalsNeeded;\n    }\n\n    function uploadResource(string memory name, string memory url) public {\n        require(bytes(name).length > 0, \"Resource name is required\");\n        require(bytes(url).length > 0, \"Resource URL is required\");\n\n        resources.push(Resource({\n            id: nextResourceId,\n            name: name,\n            url: url,\n            uploader: msg.sender,\n            votesFor: 0,\n            votesAgainst: 0,\n            approved: false\n        }));\n\n        emit ResourceUploaded(nextResourceId, name, url, msg.sender);\n        nextResourceId++;\n    }\n\n    function voteOnResource(uint256 id, bool voteFor) public onlyValidator {\n        require(id > 0 && id < nextResourceId, \"Invalid resource ID\");\n        require(validators[msg.sender], \"Not a validator\");\n\n        // Add debug logs\n        emit ResourceVoted(id, msg.sender, voteFor);\n\n        Resource storage resource = resources[id - 1];\n\n        if (voteFor) {\n            resource.votesFor++;\n        } else {\n            resource.votesAgainst++;\n        }\n\n        if (resource.votesFor >= requiredApprovals) {\n            resource.approved = true;\n            emit ResourceApproved(id, resource.name, true);\n        } else if (resource.votesAgainst >= requiredApprovals) {\n            resource.approved = false;\n            emit ResourceApproved(id, resource.name, false);\n        }\n    }\n\n    function getResource(uint256 id) public view returns (string memory, string memory, address, uint256, uint256, bool) {\n        require(id > 0 && id < nextResourceId, \"Invalid resource ID\");\n        Resource memory resource = resources[id - 1];\n        return (resource.name, resource.url, resource.uploader, resource.votesFor, resource.votesAgainst, resource.approved);\n    }\n\n    function getNextResourceId() public view returns (uint256) {\n        return nextResourceId;\n    }\n}\n",
  "sourcePath": "/Users/samennis/Desktop/Main/University/CS4207-Blockchain/contracts/AcademicResources.sol",
  "compiler": {
    "name": "solc",
    "version": "0.8.0+commit.c7dfd78e.Emscripten.clang"
  },
  "schemaVersion": "3.4.16",
  "updatedAt": "2024-12-07T18:34:01.183Z",
  "networkType": "ethereum",
  "devdoc": {
    "kind": "dev",
    "methods": {},
    "version": 1
  },
  "userdoc": {
    "kind": "user",
    "methods": {},
    "version": 1
  }
}