{
  "contractName": "AcademicResourcesWithConsensus",
  "abi": [
    {
      "inputs": [
        {
          "internalType": "address[]",
          "name": "initialValidators",
          "type": "address[]"
        },
        {
          "internalType": "uint256",
          "name": "approvalsNeeded",
          "type": "uint256"
        }
      ],
      "stateMutability": "nonpayable",
      "type": "constructor"
    },
    {
      "anonymous": false,
      "inputs": [
        {
          "indexed": false,
          "internalType": "uint256",
          "name": "id",
          "type": "uint256"
        },
        {
          "indexed": false,
          "internalType": "string",
          "name": "name",
          "type": "string"
        },
        {
          "indexed": false,
          "internalType": "bool",
          "name": "approved",
          "type": "bool"
        }
      ],
      "name": "ResourceApproved",
      "type": "event"
    },
    {
      "anonymous": false,
      "inputs": [
        {
          "indexed": false,
          "internalType": "uint256",
          "name": "id",
          "type": "uint256"
        },
        {
          "indexed": false,
          "internalType": "string",
          "name": "name",
          "type": "string"
        },
        {
          "indexed": false,
          "internalType": "string",
          "name": "url",
          "type": "string"
        },
        {
          "indexed": false,
          "internalType": "address",
          "name": "uploader",
          "type": "address"
        }
      ],
      "name": "ResourceUploaded",
      "type": "event"
    },
    {
      "anonymous": false,
      "inputs": [
        {
          "indexed": false,
          "internalType": "uint256",
          "name": "id",
          "type": "uint256"
        },
        {
          "indexed": false,
          "internalType": "address",
          "name": "voter",
          "type": "address"
        },
        {
          "indexed": false,
          "internalType": "bool",
          "name": "voteFor",
          "type": "bool"
        }
      ],
      "name": "ResourceVoted",
      "type": "event"
    },
    {
      "inputs": [
        {
          "internalType": "address",
          "name": "",
          "type": "address"
        }
      ],
      "name": "validators",
      "outputs": [
        {
          "internalType": "bool",
          "name": "",
          "type": "bool"
        }
      ],
      "stateMutability": "view",
      "type": "function"
    },
    {
      "inputs": [
        {
          "internalType": "string",
          "name": "name",
          "type": "string"
        },
        {
          "internalType": "string",
          "name": "url",
          "type": "string"
        }
      ],
      "name": "uploadResource",
      "outputs": [],
      "stateMutability": "nonpayable",
      "type": "function"
    },
    {
      "inputs": [
        {
          "internalType": "uint256",
          "name": "id",
          "type": "uint256"
        },
        {
          "internalType": "bool",
          "name": "voteFor",
          "type": "bool"
        }
      ],
      "name": "voteOnResource",
      "outputs": [],
      "stateMutability": "nonpayable",
      "type": "function"
    },
    {
      "inputs": [
        {
          "internalType": "uint256",
          "name": "id",
          "type": "uint256"
        }
      ],
      "name": "getResource",
      "outputs": [
        {
          "internalType": "string",
          "name": "",
          "type": "string"
        },
        {
          "internalType": "string",
          "name": "",
          "type": "string"
        },
        {
          "internalType": "address",
          "name": "",
          "type": "address"
        },
        {
          "internalType": "uint256",
          "name": "",
          "type": "uint256"
        },
        {
          "internalType": "uint256",
          "name": "",
          "type": "uint256"
        },
        {
          "internalType": "bool",
          "name": "",
          "type": "bool"
        }
      ],
      "stateMutability": "view",
      "type": "function"
    }
  ],
  "bytecode": "0x608060405260016003553480156200001657600080fd5b50604051620014fe380380620014fe83398181016040528101906200003c9190620001d7565b60005b8251811015620000f757600160008085848151811062000088577f4e487b7100000000000000000000000000000000000000000000000000000000600052603260045260246000fd5b602002602001015173ffffffffffffffffffffffffffffffffffffffff1673ffffffffffffffffffffffffffffffffffffffff16815260200190815260200160002060006101000a81548160ff0219169083151502179055508080620000ee90620002d2565b9150506200003f565b50806001819055505050620003b2565b60006200011e620001188462000265565b62000231565b905080838252602082019050828560208602820111156200013e57600080fd5b60005b858110156200017257816200015788826200017c565b84526020840193506020830192505060018101905062000141565b5050509392505050565b6000815190506200018d816200037e565b92915050565b600082601f830112620001a557600080fd5b8151620001b784826020860162000107565b91505092915050565b600081519050620001d18162000398565b92915050565b60008060408385031215620001eb57600080fd5b600083015167ffffffffffffffff8111156200020657600080fd5b620002148582860162000193565b92505060206200022785828601620001c0565b9150509250929050565b6000604051905081810181811067ffffffffffffffff821117156200025b576200025a6200034f565b5b8060405250919050565b600067ffffffffffffffff8211156200028357620002826200034f565b5b602082029050602081019050919050565b6000620002a182620002a8565b9050919050565b600073ffffffffffffffffffffffffffffffffffffffff82169050919050565b6000819050919050565b6000620002df82620002c8565b91507fffffffffffffffffffffffffffffffffffffffffffffffffffffffffffffffff82141562000315576200031462000320565b5b600182019050919050565b7f4e487b7100000000000000000000000000000000000000000000000000000000600052601160045260246000fd5b7f4e487b7100000000000000000000000000000000000000000000000000000000600052604160045260246000fd5b620003898162000294565b81146200039557600080fd5b50565b620003a381620002c8565b8114620003af57600080fd5b50565b61113c80620003c26000396000f3fe608060405234801561001057600080fd5b506004361061004c5760003560e01c80631e8fca2d146100515780634fb48d1d14610086578063be7fded0146100a2578063fa52c7d8146100be575b600080fd5b61006b60048036038101906100669190610a3b565b6100ee565b60405161007d96959493929190610ca1565b60405180910390f35b6100a0600480360381019061009b9190610a64565b610391565b005b6100bc60048036038101906100b791906109cf565b61061d565b005b6100d860048036038101906100d391906109a6565b61083c565b6040516100e59190610c86565b60405180910390f35b606080600080600080600087118015610108575060035487105b610147576040517f08c379a000000000000000000000000000000000000000000000000000000000815260040161013e90610d70565b60405180910390fd5b600060026001896101589190610eea565b8154811061018f577f4e487b7100000000000000000000000000000000000000000000000000000000600052603260045260246000fd5b90600052602060002090600702016040518060e0016040529081600082015481526020016001820180546101c290610fa8565b80601f01602080910402602001604051908101604052809291908181526020018280546101ee90610fa8565b801561023b5780601f106102105761010080835404028352916020019161023b565b820191906000526020600020905b81548152906001019060200180831161021e57829003601f168201915b5050505050815260200160028201805461025490610fa8565b80601f016020809104026020016040519081016040528092919081815260200182805461028090610fa8565b80156102cd5780601f106102a2576101008083540402835291602001916102cd565b820191906000526020600020905b8154815290600101906020018083116102b057829003601f168201915b505050505081526020016003820160009054906101000a900473ffffffffffffffffffffffffffffffffffffffff1673ffffffffffffffffffffffffffffffffffffffff1673ffffffffffffffffffffffffffffffffffffffff16815260200160048201548152602001600582015481526020016006820160009054906101000a900460ff161515151581525050905080602001518160400151826060015183608001518460a001518560c001519650965096509650965096505091939550919395565b6000803373ffffffffffffffffffffffffffffffffffffffff1673ffffffffffffffffffffffffffffffffffffffff16815260200190815260200160002060009054906101000a900460ff1661041c576040517f08c379a000000000000000000000000000000000000000000000000000000000815260040161041390610d50565b60405180910390fd5b60008211801561042d575060035482105b61046c576040517f08c379a000000000000000000000000000000000000000000000000000000000815260040161046390610d70565b60405180910390fd5b6000600260018461047d9190610eea565b815481106104b4577f4e487b7100000000000000000000000000000000000000000000000000000000600052603260045260246000fd5b9060005260206000209060070201905081156104e9578060040160008154809291906104df90610fda565b9190505550610504565b8060050160008154809291906104fe90610fda565b91905055505b7f6569d5f5b7b55d6d0f92da5f5257421876ffc4a5154a8ddef87a76dcb1dc51db83338460405161053793929190610d90565b60405180910390a16001548160040154106105ad5760018160060160006101000a81548160ff0219169083151502179055507fe8f4a2280785fe70eb7bcc6114c3262c3040fdb01eca3a70096869e7c8a6321e838260010160016040516105a093929190610e1a565b60405180910390a1610618565b6001548160050154106106175760008160060160006101000a81548160ff0219169083151502179055507fe8f4a2280785fe70eb7bcc6114c3262c3040fdb01eca3a70096869e7c8a6321e8382600101600060405161060e93929190610e1a565b60405180910390a15b5b505050565b6000825111610661576040517f08c379a000000000000000000000000000000000000000000000000000000000815260040161065890610d10565b60405180910390fd5b60008151116106a5576040517f08c379a000000000000000000000000000000000000000000000000000000000815260040161069c90610d30565b60405180910390fd5b60026040518060e0016040528060035481526020018481526020018381526020013373ffffffffffffffffffffffffffffffffffffffff168152602001600081526020016000815260200160001515815250908060018154018082558091505060019003906000526020600020906007020160009091909190915060008201518160000155602082015181600101908051906020019061074692919061085c565b50604082015181600201908051906020019061076392919061085c565b5060608201518160030160006101000a81548173ffffffffffffffffffffffffffffffffffffffff021916908373ffffffffffffffffffffffffffffffffffffffff1602179055506080820151816004015560a0820151816005015560c08201518160060160006101000a81548160ff02191690831515021790555050507ff3d3a5532c67b1c6215d25f3cf6f5743b00c0da8f605508a61407a51164461f26003548383336040516108189493929190610dc7565b60405180910390a16003600081548092919061083390610fda565b91905055505050565b60006020528060005260406000206000915054906101000a900460ff1681565b82805461086890610fa8565b90600052602060002090601f01602090048101928261088a57600085556108d1565b82601f106108a357805160ff19168380011785556108d1565b828001600101855582156108d1579182015b828111156108d05782518255916020019190600101906108b5565b5b5090506108de91906108e2565b5090565b5b808211156108fb5760008160009055506001016108e3565b5090565b600061091261090d84610e89565b610e58565b90508281526020810184848401111561092a57600080fd5b610935848285610f66565b509392505050565b60008135905061094c816110c1565b92915050565b600081359050610961816110d8565b92915050565b600082601f83011261097857600080fd5b81356109888482602086016108ff565b91505092915050565b6000813590506109a0816110ef565b92915050565b6000602082840312156109b857600080fd5b60006109c68482850161093d565b91505092915050565b600080604083850312156109e257600080fd5b600083013567ffffffffffffffff8111156109fc57600080fd5b610a0885828601610967565b925050602083013567ffffffffffffffff811115610a2557600080fd5b610a3185828601610967565b9150509250929050565b600060208284031215610a4d57600080fd5b6000610a5b84828501610991565b91505092915050565b60008060408385031215610a7757600080fd5b6000610a8585828601610991565b9250506020610a9685828601610952565b9150509250929050565b610aa981610f1e565b82525050565b610ab881610f30565b82525050565b6000610ac982610ece565b610ad38185610ed9565b9350610ae3818560208601610f75565b610aec816110b0565b840191505092915050565b60008154610b0481610fa8565b610b0e8186610ed9565b94506001821660008114610b295760018114610b3b57610b6e565b60ff1983168652602086019350610b6e565b610b4485610eb9565b60005b83811015610b6657815481890152600182019150602081019050610b47565b808801955050505b50505092915050565b6000610b84601983610ed9565b91507f5265736f75726365206e616d65206973207265717569726564000000000000006000830152602082019050919050565b6000610bc4601883610ed9565b91507f5265736f757263652055524c20697320726571756972656400000000000000006000830152602082019050919050565b6000610c04600f83610ed9565b91507f4e6f7420612076616c696461746f7200000000000000000000000000000000006000830152602082019050919050565b6000610c44601383610ed9565b91507f496e76616c6964207265736f75726365204944000000000000000000000000006000830152602082019050919050565b610c8081610f5c565b82525050565b6000602082019050610c9b6000830184610aaf565b92915050565b600060c0820190508181036000830152610cbb8189610abe565b90508181036020830152610ccf8188610abe565b9050610cde6040830187610aa0565b610ceb6060830186610c77565b610cf86080830185610c77565b610d0560a0830184610aaf565b979650505050505050565b60006020820190508181036000830152610d2981610b77565b9050919050565b60006020820190508181036000830152610d4981610bb7565b9050919050565b60006020820190508181036000830152610d6981610bf7565b9050919050565b60006020820190508181036000830152610d8981610c37565b9050919050565b6000606082019050610da56000830186610c77565b610db26020830185610aa0565b610dbf6040830184610aaf565b949350505050565b6000608082019050610ddc6000830187610c77565b8181036020830152610dee8186610abe565b90508181036040830152610e028185610abe565b9050610e116060830184610aa0565b95945050505050565b6000606082019050610e2f6000830186610c77565b8181036020830152610e418185610af7565b9050610e506040830184610aaf565b949350505050565b6000604051905081810181811067ffffffffffffffff82111715610e7f57610e7e611081565b5b8060405250919050565b600067ffffffffffffffff821115610ea457610ea3611081565b5b601f19601f8301169050602081019050919050565b60008190508160005260206000209050919050565b600081519050919050565b600082825260208201905092915050565b6000610ef582610f5c565b9150610f0083610f5c565b925082821015610f1357610f12611023565b5b828203905092915050565b6000610f2982610f3c565b9050919050565b60008115159050919050565b600073ffffffffffffffffffffffffffffffffffffffff82169050919050565b6000819050919050565b82818337600083830152505050565b60005b83811015610f93578082015181840152602081019050610f78565b83811115610fa2576000848401525b50505050565b60006002820490506001821680610fc057607f821691505b60208210811415610fd457610fd3611052565b5b50919050565b6000610fe582610f5c565b91507fffffffffffffffffffffffffffffffffffffffffffffffffffffffffffffffff82141561101857611017611023565b5b600182019050919050565b7f4e487b7100000000000000000000000000000000000000000000000000000000600052601160045260246000fd5b7f4e487b7100000000000000000000000000000000000000000000000000000000600052602260045260246000fd5b7f4e487b7100000000000000000000000000000000000000000000000000000000600052604160045260246000fd5b6000601f19601f8301169050919050565b6110ca81610f1e565b81146110d557600080fd5b50565b6110e181610f30565b81146110ec57600080fd5b50565b6110f881610f5c565b811461110357600080fd5b5056fea2646970667358221220d56d8cec09894425a526912751aaf3c82b4625d895c7707c39465f76e8698f7964736f6c63430008000033",
  "immutableReferences": {},
  "source": "pragma solidity ^0.8.0;\n\ncontract AcademicResourcesWithConsensus {\n    struct Resource {\n        uint256 id;\n        string name;\n        string url;\n        address uploader;\n        uint256 votesFor;\n        uint256 votesAgainst;\n        bool approved;\n    }\n\n    mapping(address => bool) public validators;\n    uint256 private requiredApprovals;\n\n    Resource[] private resources;\n\n    event ResourceUploaded(uint256 id, string name, string url, address uploader);\n    event ResourceVoted(uint256 id, address voter, bool voteFor);\n    event ResourceApproved(uint256 id, string name, bool approved);\n\n    modifier onlyValidator() {\n        require(validators[msg.sender], \"Not a validator\");\n        _;\n    }\n\n    uint256 private nextResourceId = 1;\n\n    constructor(address[] memory initialValidators, uint256 approvalsNeeded) {\n        for (uint256 i = 0; i < initialValidators.length; i++) {\n            validators[initialValidators[i]] = true;\n        }\n        requiredApprovals = approvalsNeeded;\n    }\n\n    function uploadResource(string memory name, string memory url) public {\n        require(bytes(name).length > 0, \"Resource name is required\");\n        require(bytes(url).length > 0, \"Resource URL is required\");\n\n        resources.push(Resource({\n            id: nextResourceId,\n            name: name,\n            url: url,\n            uploader: msg.sender,\n            votesFor: 0,\n            votesAgainst: 0,\n            approved: false\n        }));\n\n        emit ResourceUploaded(nextResourceId, name, url, msg.sender);\n        nextResourceId++;\n    }\n\n    function voteOnResource(uint256 id, bool voteFor) public onlyValidator {\n        require(id > 0 && id < nextResourceId, \"Invalid resource ID\");\n        Resource storage resource = resources[id - 1];\n\n        if (voteFor) {\n            resource.votesFor++;\n        } else {\n            resource.votesAgainst++;\n        }\n\n        emit ResourceVoted(id, msg.sender, voteFor);\n\n        if (resource.votesFor >= requiredApprovals) {\n            resource.approved = true;\n            emit ResourceApproved(id, resource.name, true);\n        } else if (resource.votesAgainst >= requiredApprovals) {\n            resource.approved = false;\n            emit ResourceApproved(id, resource.name, false);\n        }\n    }\n\n    function getResource(uint256 id) public view returns (string memory, string memory, address, uint256, uint256, bool) {\n        require(id > 0 && id < nextResourceId, \"Invalid resource ID\");\n        Resource memory resource = resources[id - 1];\n        return (resource.name, resource.url, resource.uploader, resource.votesFor, resource.votesAgainst, resource.approved);\n    }\n}\n",
  "sourcePath": "/Users/samennis/Desktop/Main/University/CS4207-Blockchain/contracts/AcademicResources.sol",
  "compiler": {
    "name": "solc",
    "version": "0.8.0+commit.c7dfd78e.Emscripten.clang"
  },
  "schemaVersion": "3.4.16",
  "updatedAt": "2024-12-07T17:53:38.781Z",
  "devdoc": {
    "kind": "dev",
    "methods": {},
    "version": 1
  },
  "userdoc": {
    "kind": "user",
    "methods": {},
    "version": 1
  }
}