{
  "contractName": "AcademicResources",
  "abi": [
    {
      "inputs": [
        {
          "internalType": "address",
          "name": "tokenAddress",
          "type": "address"
        },
        {
          "internalType": "address",
          "name": "validatorAddress",
          "type": "address"
        }
      ],
      "stateMutability": "nonpayable",
      "type": "constructor"
    },
    {
      "anonymous": false,
      "inputs": [
        {
          "indexed": false,
          "internalType": "uint256",
          "name": "id",
          "type": "uint256"
        },
        {
          "indexed": false,
          "internalType": "address",
          "name": "reporter",
          "type": "address"
        },
        {
          "indexed": false,
          "internalType": "uint256",
          "name": "reportCount",
          "type": "uint256"
        }
      ],
      "name": "ResourceReported",
      "type": "event"
    },
    {
      "anonymous": false,
      "inputs": [
        {
          "indexed": false,
          "internalType": "uint256",
          "name": "id",
          "type": "uint256"
        },
        {
          "indexed": false,
          "internalType": "string",
          "name": "name",
          "type": "string"
        },
        {
          "indexed": false,
          "internalType": "string",
          "name": "url",
          "type": "string"
        },
        {
          "indexed": false,
          "internalType": "address",
          "name": "uploader",
          "type": "address"
        }
      ],
      "name": "ResourceUploaded",
      "type": "event"
    },
    {
      "anonymous": false,
      "inputs": [
        {
          "indexed": false,
          "internalType": "uint256",
          "name": "id",
          "type": "uint256"
        },
        {
          "indexed": false,
          "internalType": "address",
          "name": "upvoter",
          "type": "address"
        },
        {
          "indexed": false,
          "internalType": "uint256",
          "name": "upvoteCount",
          "type": "uint256"
        }
      ],
      "name": "ResourceUpvoted",
      "type": "event"
    },
    {
      "anonymous": false,
      "inputs": [
        {
          "indexed": false,
          "internalType": "uint256",
          "name": "id",
          "type": "uint256"
        },
        {
          "indexed": false,
          "internalType": "address",
          "name": "validator",
          "type": "address"
        }
      ],
      "name": "ResourceValidated",
      "type": "event"
    },
    {
      "anonymous": false,
      "inputs": [
        {
          "indexed": true,
          "internalType": "address",
          "name": "user",
          "type": "address"
        },
        {
          "indexed": false,
          "internalType": "uint256",
          "name": "amount",
          "type": "uint256"
        }
      ],
      "name": "TokensRewarded",
      "type": "event"
    },
    {
      "inputs": [],
      "name": "validator",
      "outputs": [
        {
          "internalType": "contract Validator",
          "name": "",
          "type": "address"
        }
      ],
      "stateMutability": "view",
      "type": "function",
      "constant": true
    },
    {
      "inputs": [
        {
          "internalType": "string",
          "name": "name",
          "type": "string"
        },
        {
          "internalType": "string",
          "name": "url",
          "type": "string"
        }
      ],
      "name": "uploadResource",
      "outputs": [],
      "stateMutability": "nonpayable",
      "type": "function"
    },
    {
      "inputs": [
        {
          "internalType": "uint256",
          "name": "id",
          "type": "uint256"
        }
      ],
      "name": "validateResource",
      "outputs": [],
      "stateMutability": "nonpayable",
      "type": "function"
    },
    {
      "inputs": [
        {
          "internalType": "uint256",
          "name": "id",
          "type": "uint256"
        }
      ],
      "name": "upvoteResource",
      "outputs": [],
      "stateMutability": "nonpayable",
      "type": "function"
    },
    {
      "inputs": [
        {
          "internalType": "uint256",
          "name": "id",
          "type": "uint256"
        }
      ],
      "name": "reportResource",
      "outputs": [],
      "stateMutability": "nonpayable",
      "type": "function"
    },
    {
      "inputs": [
        {
          "internalType": "uint256",
          "name": "id",
          "type": "uint256"
        }
      ],
      "name": "getResource",
      "outputs": [
        {
          "components": [
            {
              "internalType": "uint256",
              "name": "id",
              "type": "uint256"
            },
            {
              "internalType": "string",
              "name": "name",
              "type": "string"
            },
            {
              "internalType": "string",
              "name": "url",
              "type": "string"
            },
            {
              "internalType": "address",
              "name": "uploader",
              "type": "address"
            },
            {
              "internalType": "uint256",
              "name": "upvotes",
              "type": "uint256"
            },
            {
              "internalType": "uint256",
              "name": "reports",
              "type": "uint256"
            },
            {
              "internalType": "bool",
              "name": "validated",
              "type": "bool"
            }
          ],
          "internalType": "struct AcademicResources.Resource",
          "name": "",
          "type": "tuple"
        }
      ],
      "stateMutability": "view",
      "type": "function",
      "constant": true
    }
  ],
  "bytecode": "0x608060405260016003553480156200001657600080fd5b506040516200225e3803806200225e83398181016040528101906200003c9190620000dc565b816000806101000a81548173ffffffffffffffffffffffffffffffffffffffff021916908373ffffffffffffffffffffffffffffffffffffffff16021790555080600160006101000a81548173ffffffffffffffffffffffffffffffffffffffff021916908373ffffffffffffffffffffffffffffffffffffffff16021790555050506200016b565b600081519050620000d68162000151565b92915050565b60008060408385031215620000f057600080fd5b60006200010085828601620000c5565b92505060206200011385828601620000c5565b9150509250929050565b60006200012a8262000131565b9050919050565b600073ffffffffffffffffffffffffffffffffffffffff82169050919050565b6200015c816200011d565b81146200016857600080fd5b50565b6120e3806200017b6000396000f3fe608060405234801561001057600080fd5b50600436106100625760003560e01c80631e8fca2d146100675780633a5381b5146100975780634e759dfa146100b557806354248d42146100d1578063a34fcf1f146100ed578063be7fded014610109575b600080fd5b610081600480360381019061007c9190611609565b610125565b60405161008e9190611ade565b60405180910390f35b61009f6103f2565b6040516100ac9190611a03565b60405180910390f35b6100cf60048036038101906100ca9190611609565b610418565b005b6100eb60048036038101906100e69190611609565b61087d565b005b61010760048036038101906101029190611609565b610d37565b005b610123600480360381019061011e919061159d565b610ed9565b005b61012d6113c0565b60005b6002805490508110156103b1578260028281548110610178577f4e487b7100000000000000000000000000000000000000000000000000000000600052603260045260246000fd5b906000526020600020906007020160000154141561039e57600281815481106101ca577f4e487b7100000000000000000000000000000000000000000000000000000000600052603260045260246000fd5b90600052602060002090600702016040518060e0016040529081600082015481526020016001820180546101fd90611f13565b80601f016020809104026020016040519081016040528092919081815260200182805461022990611f13565b80156102765780601f1061024b57610100808354040283529160200191610276565b820191906000526020600020905b81548152906001019060200180831161025957829003601f168201915b5050505050815260200160028201805461028f90611f13565b80601f01602080910402602001604051908101604052809291908181526020018280546102bb90611f13565b80156103085780601f106102dd57610100808354040283529160200191610308565b820191906000526020600020905b8154815290600101906020018083116102eb57829003601f168201915b505050505081526020016003820160009054906101000a900473ffffffffffffffffffffffffffffffffffffffff1673ffffffffffffffffffffffffffffffffffffffff1673ffffffffffffffffffffffffffffffffffffffff16815260200160048201548152602001600582015481526020016006820160009054906101000a900460ff1615151515815250509150506103ed565b80806103a990611f45565b915050610130565b506040517f08c379a00000000000000000000000000000000000000000000000000000000081526004016103e490611abe565b60405180910390fd5b919050565b600160009054906101000a900473ffffffffffffffffffffffffffffffffffffffff1681565b60005b60028054905081101561083e578160028281548110610463577f4e487b7100000000000000000000000000000000000000000000000000000000600052603260045260246000fd5b906000526020600020906007020160000154141561082b57600281815481106104b5577f4e487b7100000000000000000000000000000000000000000000000000000000600052603260045260246000fd5b906000526020600020906007020160060160009054906101000a900460ff16610513576040517f08c379a000000000000000000000000000000000000000000000000000000000815260040161050a90611a9e565b60405180910390fd5b6002818154811061054d577f4e487b7100000000000000000000000000000000000000000000000000000000600052603260045260246000fd5b9060005260206000209060070201600401600081548092919061056f90611f45565b91905055507f1cd44d2d873ab12bc74a81ca2286675a9ebd0e68588a5a5dbe5c091837be759c8233600284815481106105d1577f4e487b7100000000000000000000000000000000000000000000000000000000600052603260045260246000fd5b9060005260206000209060070201600401546040516105f293929190611b44565b60405180910390a1600061065060028381548110610639577f4e487b7100000000000000000000000000000000000000000000000000000000600052603260045260246000fd5b906000526020600020906007020160040154611244565b905060008054906101000a900473ffffffffffffffffffffffffffffffffffffffff1673ffffffffffffffffffffffffffffffffffffffff1663a9059cbb600284815481106106c8577f4e487b7100000000000000000000000000000000000000000000000000000000600052603260045260246000fd5b906000526020600020906007020160030160009054906101000a900473ffffffffffffffffffffffffffffffffffffffff16836040518363ffffffff1660e01b81526004016107189291906119da565b602060405180830381600087803b15801561073257600080fd5b505af1158015610746573d6000803e3d6000fd5b505050506040513d601f19601f8201168201806040525081019061076a9190611574565b50600282815481106107a5577f4e487b7100000000000000000000000000000000000000000000000000000000600052603260045260246000fd5b906000526020600020906007020160030160009054906101000a900473ffffffffffffffffffffffffffffffffffffffff1673ffffffffffffffffffffffffffffffffffffffff167f0d3ecba324ef5a283bcbd5d1a966cab18661432ab3575740c588f7a0144b0dfa8260405161081c9190611b00565b60405180910390a2505061087a565b808061083690611f45565b91505061041b565b506040517f08c379a000000000000000000000000000000000000000000000000000000000815260040161087190611abe565b60405180910390fd5b50565b600160009054906101000a900473ffffffffffffffffffffffffffffffffffffffff1673ffffffffffffffffffffffffffffffffffffffff1663facd743b336040518263ffffffff1660e01b81526004016108d891906119bf565b60206040518083038186803b1580156108f057600080fd5b505afa158015610904573d6000803e3d6000fd5b505050506040513d601f19601f820116820180604052508101906109289190611574565b610967576040517f08c379a000000000000000000000000000000000000000000000000000000000815260040161095e90611a7e565b60405180910390fd5b60005b600280549050811015610cf85781600282815481106109b2577f4e487b7100000000000000000000000000000000000000000000000000000000600052603260045260246000fd5b9060005260206000209060070201600001541415610ce55760028181548110610a04577f4e487b7100000000000000000000000000000000000000000000000000000000600052603260045260246000fd5b906000526020600020906007020160060160009054906101000a900460ff1615610a63576040517f08c379a0000000000000000000000000000000000000000000000000000000008152600401610a5a90611a1e565b60405180910390fd5b600160028281548110610a9f577f4e487b7100000000000000000000000000000000000000000000000000000000600052603260045260246000fd5b906000526020600020906007020160060160006101000a81548160ff0219169083151502179055506000610ad1611309565b905060008054906101000a900473ffffffffffffffffffffffffffffffffffffffff1673ffffffffffffffffffffffffffffffffffffffff1663a9059cbb60028481548110610b49577f4e487b7100000000000000000000000000000000000000000000000000000000600052603260045260246000fd5b906000526020600020906007020160030160009054906101000a900473ffffffffffffffffffffffffffffffffffffffff16836040518363ffffffff1660e01b8152600401610b999291906119da565b602060405180830381600087803b158015610bb357600080fd5b505af1158015610bc7573d6000803e3d6000fd5b505050506040513d601f19601f82011682018060405250810190610beb9190611574565b5060028281548110610c26577f4e487b7100000000000000000000000000000000000000000000000000000000600052603260045260246000fd5b906000526020600020906007020160030160009054906101000a900473ffffffffffffffffffffffffffffffffffffffff1673ffffffffffffffffffffffffffffffffffffffff167f0d3ecba324ef5a283bcbd5d1a966cab18661432ab3575740c588f7a0144b0dfa82604051610c9d9190611b00565b60405180910390a27f9bef01a04d7bff9d6bf7608edb379b42e89c19c3805d1b55435c0ea76b58bbff8333604051610cd6929190611b1b565b60405180910390a15050610d34565b8080610cf090611f45565b91505061096a565b506040517f08c379a0000000000000000000000000000000000000000000000000000000008152600401610d2b90611abe565b60405180910390fd5b50565b60005b600280549050811015610e9a578160028281548110610d82577f4e487b7100000000000000000000000000000000000000000000000000000000600052603260045260246000fd5b9060005260206000209060070201600001541415610e875760028181548110610dd4577f4e487b7100000000000000000000000000000000000000000000000000000000600052603260045260246000fd5b90600052602060002090600702016005016000815480929190610df690611f45565b91905055507f44c008878b9c90cf7b4617fdb2fd8ba37dadbfdd0774e015992889934a4e4974823360028481548110610e58577f4e487b7100000000000000000000000000000000000000000000000000000000600052603260045260246000fd5b906000526020600020906007020160050154604051610e7993929190611b44565b60405180910390a150610ed6565b8080610e9290611f45565b915050610d3a565b506040517f08c379a0000000000000000000000000000000000000000000000000000000008152600401610ecd90611abe565b60405180910390fd5b50565b6000825111610f1d576040517f08c379a0000000000000000000000000000000000000000000000000000000008152600401610f1490611a3e565b60405180910390fd5b6000815111610f61576040517f08c379a0000000000000000000000000000000000000000000000000000000008152600401610f5890611a5e565b60405180910390fd5b60026040518060e0016040528060035481526020018481526020018381526020013373ffffffffffffffffffffffffffffffffffffffff1681526020016000815260200160008152602001600015158152509080600181540180825580915050600190039060005260206000209060070201600090919091909150600082015181600001556020820151816001019080519060200190611002929190611415565b50604082015181600201908051906020019061101f929190611415565b5060608201518160030160006101000a81548173ffffffffffffffffffffffffffffffffffffffff021916908373ffffffffffffffffffffffffffffffffffffffff1602179055506080820151816004015560a0820151816005015560c08201518160060160006101000a81548160ff02191690831515021790555050507ff3d3a5532c67b1c6215d25f3cf6f5743b00c0da8f605508a61407a51164461f26003548383336040516110d49493929190611b7b565b60405180910390a160008060009054906101000a900473ffffffffffffffffffffffffffffffffffffffff1673ffffffffffffffffffffffffffffffffffffffff1663313ce5676040518163ffffffff1660e01b815260040160206040518083038186803b15801561114557600080fd5b505afa158015611159573d6000803e3d6000fd5b505050506040513d601f19601f8201168201806040525081019061117d919061165b565b60ff16600a61118c9190611ce0565b600a6111989190611dfe565b905060008054906101000a900473ffffffffffffffffffffffffffffffffffffffff1673ffffffffffffffffffffffffffffffffffffffff166340c10f1933836040518363ffffffff1660e01b81526004016111f59291906119da565b600060405180830381600087803b15801561120f57600080fd5b505af1158015611223573d6000803e3d6000fd5b505050506003600081548092919061123a90611f45565b9190505550505050565b60008060008054906101000a900473ffffffffffffffffffffffffffffffffffffffff1673ffffffffffffffffffffffffffffffffffffffff166318160ddd6040518163ffffffff1660e01b815260040160206040518083038186803b1580156112ad57600080fd5b505afa1580156112c1573d6000803e3d6000fd5b505050506040513d601f19601f820116820180604052508101906112e59190611632565b905082620186a0826112f79190611c5c565b6113019190611dfe565b915050919050565b60008060008054906101000a900473ffffffffffffffffffffffffffffffffffffffff1673ffffffffffffffffffffffffffffffffffffffff166318160ddd6040518163ffffffff1660e01b815260040160206040518083038186803b15801561137257600080fd5b505afa158015611386573d6000803e3d6000fd5b505050506040513d601f19601f820116820180604052508101906113aa9190611632565b9050612710816113ba9190611c5c565b91505090565b6040518060e00160405280600081526020016060815260200160608152602001600073ffffffffffffffffffffffffffffffffffffffff16815260200160008152602001600081526020016000151581525090565b82805461142190611f13565b90600052602060002090601f016020900481019282611443576000855561148a565b82601f1061145c57805160ff191683800117855561148a565b8280016001018555821561148a579182015b8281111561148957825182559160200191906001019061146e565b5b509050611497919061149b565b5090565b5b808211156114b457600081600090555060010161149c565b5090565b60006114cb6114c684611bff565b611bce565b9050828152602081018484840111156114e357600080fd5b6114ee848285611ed1565b509392505050565b60008151905061150581612068565b92915050565b600082601f83011261151c57600080fd5b813561152c8482602086016114b8565b91505092915050565b6000813590506115448161207f565b92915050565b6000815190506115598161207f565b92915050565b60008151905061156e81612096565b92915050565b60006020828403121561158657600080fd5b6000611594848285016114f6565b91505092915050565b600080604083850312156115b057600080fd5b600083013567ffffffffffffffff8111156115ca57600080fd5b6115d68582860161150b565b925050602083013567ffffffffffffffff8111156115f357600080fd5b6115ff8582860161150b565b9150509250929050565b60006020828403121561161b57600080fd5b600061162984828501611535565b91505092915050565b60006020828403121561164457600080fd5b60006116528482850161154a565b91505092915050565b60006020828403121561166d57600080fd5b600061167b8482850161155f565b91505092915050565b61168d81611e58565b82525050565b61169c81611e58565b82525050565b6116ab81611e6a565b82525050565b6116ba81611ead565b82525050565b60006116cb82611c2f565b6116d58185611c3a565b93506116e5818560208601611ee0565b6116ee8161204a565b840191505092915050565b600061170482611c2f565b61170e8185611c4b565b935061171e818560208601611ee0565b6117278161204a565b840191505092915050565b600061173f601d83611c4b565b91507f5265736f7572636520697320616c72656164792076616c6964617465640000006000830152602082019050919050565b600061177f601983611c4b565b91507f5265736f75726365206e616d65206973207265717569726564000000000000006000830152602082019050919050565b60006117bf601883611c4b565b91507f5265736f757263652055524c20697320726571756972656400000000000000006000830152602082019050919050565b60006117ff602683611c4b565b91507f4f6e6c792076616c696461746f72732063616e2076616c69646174652072657360008301527f6f757263657300000000000000000000000000000000000000000000000000006020830152604082019050919050565b6000611865602d83611c4b565b91507f5265736f75726365206d7573742062652076616c69646174656420746f20726560008301527f6365697665207570766f746573000000000000000000000000000000000000006020830152604082019050919050565b60006118cb601283611c4b565b91507f5265736f75726365206e6f7420666f756e6400000000000000000000000000006000830152602082019050919050565b600060e08301600083015161191660008601826119a1565b506020830151848203602086015261192e82826116c0565b9150506040830151848203604086015261194882826116c0565b915050606083015161195d6060860182611684565b50608083015161197060808601826119a1565b5060a083015161198360a08601826119a1565b5060c083015161199660c08601826116a2565b508091505092915050565b6119aa81611e96565b82525050565b6119b981611e96565b82525050565b60006020820190506119d46000830184611693565b92915050565b60006040820190506119ef6000830185611693565b6119fc60208301846119b0565b9392505050565b6000602082019050611a1860008301846116b1565b92915050565b60006020820190508181036000830152611a3781611732565b9050919050565b60006020820190508181036000830152611a5781611772565b9050919050565b60006020820190508181036000830152611a77816117b2565b9050919050565b60006020820190508181036000830152611a97816117f2565b9050919050565b60006020820190508181036000830152611ab781611858565b9050919050565b60006020820190508181036000830152611ad7816118be565b9050919050565b60006020820190508181036000830152611af881846118fe565b905092915050565b6000602082019050611b1560008301846119b0565b92915050565b6000604082019050611b3060008301856119b0565b611b3d6020830184611693565b9392505050565b6000606082019050611b5960008301866119b0565b611b666020830185611693565b611b7360408301846119b0565b949350505050565b6000608082019050611b9060008301876119b0565b8181036020830152611ba281866116f9565b90508181036040830152611bb681856116f9565b9050611bc56060830184611693565b95945050505050565b6000604051905081810181811067ffffffffffffffff82111715611bf557611bf461201b565b5b8060405250919050565b600067ffffffffffffffff821115611c1a57611c1961201b565b5b601f19601f8301169050602081019050919050565b600081519050919050565b600082825260208201905092915050565b600082825260208201905092915050565b6000611c6782611e96565b9150611c7283611e96565b925082611c8257611c81611fbd565b5b828204905092915050565b6000808291508390505b6001851115611cd757808604811115611cb357611cb2611f8e565b5b6001851615611cc25780820291505b8081029050611cd08561205b565b9450611c97565b94509492505050565b6000611ceb82611e96565b9150611cf683611e96565b9250611d237fffffffffffffffffffffffffffffffffffffffffffffffffffffffffffffffff8484611d2b565b905092915050565b600082611d3b5760019050611df7565b81611d495760009050611df7565b8160018114611d5f5760028114611d6957611d98565b6001915050611df7565b60ff841115611d7b57611d7a611f8e565b5b8360020a915084821115611d9257611d91611f8e565b5b50611df7565b5060208310610133831016604e8410600b8410161715611dcd5782820a905083811115611dc857611dc7611f8e565b5b611df7565b611dda8484846001611c8d565b92509050818404811115611df157611df0611f8e565b5b81810290505b9392505050565b6000611e0982611e96565b9150611e1483611e96565b9250817fffffffffffffffffffffffffffffffffffffffffffffffffffffffffffffffff0483118215151615611e4d57611e4c611f8e565b5b828202905092915050565b6000611e6382611e76565b9050919050565b60008115159050919050565b600073ffffffffffffffffffffffffffffffffffffffff82169050919050565b6000819050919050565b600060ff82169050919050565b6000611eb882611ebf565b9050919050565b6000611eca82611e76565b9050919050565b82818337600083830152505050565b60005b83811015611efe578082015181840152602081019050611ee3565b83811115611f0d576000848401525b50505050565b60006002820490506001821680611f2b57607f821691505b60208210811415611f3f57611f3e611fec565b5b50919050565b6000611f5082611e96565b91507fffffffffffffffffffffffffffffffffffffffffffffffffffffffffffffffff821415611f8357611f82611f8e565b5b600182019050919050565b7f4e487b7100000000000000000000000000000000000000000000000000000000600052601160045260246000fd5b7f4e487b7100000000000000000000000000000000000000000000000000000000600052601260045260246000fd5b7f4e487b7100000000000000000000000000000000000000000000000000000000600052602260045260246000fd5b7f4e487b7100000000000000000000000000000000000000000000000000000000600052604160045260246000fd5b6000601f19601f8301169050919050565b60008160011c9050919050565b61207181611e6a565b811461207c57600080fd5b50565b61208881611e96565b811461209357600080fd5b50565b61209f81611ea0565b81146120aa57600080fd5b5056fea26469706673582212201a54480b4432327d2918c1616163e53457f490cc09276b157dd6e1a4c88d9cad64736f6c63430008000033",
  "immutableReferences": {},
  "source": "// SPDX-License-Identifier: MIT\r\npragma solidity ^0.8.0;\r\n\r\nimport \"./AcademicToken.sol\";\r\n\r\nimport \"./Validator.sol\";\r\n\r\ncontract AcademicResources {\r\n    AcademicToken private tokenContract;\r\n    Validator public validator;\r\n\r\n    struct Resource {\r\n        uint256 id;\r\n        string name;\r\n        string url;\r\n        address uploader;\r\n        uint256 upvotes;\r\n        uint256 reports;\r\n        bool validated;\r\n    }\r\n\r\n    Resource[] private resources;\r\n\r\n    uint256 private nextResourceId = 1;\r\n\r\n\r\n    // Events (for updating logs)\r\n    event ResourceUploaded(uint256 id, string name, string url, address uploader);\r\n    event ResourceValidated(uint256 id, address validator);\r\n    event ResourceUpvoted(uint256 id, address upvoter, uint256 upvoteCount);\r\n    event ResourceReported(uint256 id, address reporter, uint256 reportCount);\r\n    event TokensRewarded(address indexed user, uint256 amount);\r\n\r\n    constructor(address tokenAddress, address validatorAddress) {\r\n        tokenContract = AcademicToken(tokenAddress);\r\n        validator = Validator(validatorAddress);\r\n    }\r\n\r\n\r\n    // Upload a new resource\r\n    function uploadResource(string memory name, string memory url) public {\r\n        require(bytes(name).length > 0, \"Resource name is required\");\r\n        require(bytes(url).length > 0, \"Resource URL is required\");\r\n\r\n        resources.push(Resource({\r\n            id: nextResourceId,\r\n            name: name,\r\n            url: url,\r\n            uploader: msg.sender,\r\n            upvotes: 0,\r\n            reports: 0,\r\n            validated: false\r\n        }));\r\n    \r\n        emit ResourceUploaded(nextResourceId, name, url, msg.sender);\r\n\r\n        uint256 rewardAmount = 10 * (10 ** uint256(tokenContract.decimals()));\r\n        tokenContract.mint(msg.sender, rewardAmount);\r\n\r\n        nextResourceId++;\r\n\r\n    }\r\n\r\n    function validateResource(uint256 id) public {\r\n        require(validator.isValidator(msg.sender), \"Only validators can validate resources\");\r\n\r\n        for (uint256 i = 0; i < resources.length; i++) {\r\n            if (resources[i].id == id) {\r\n                require(!resources[i].validated, \"Resource is already validated\");\r\n                resources[i].validated = true;\r\n\r\n                uint256 reward = calculateUploadReward();\r\n                tokenContract.transfer(resources[i].uploader, reward);\r\n                emit TokensRewarded(resources[i].uploader, reward);\r\n\r\n                emit ResourceValidated(id, msg.sender);\r\n                return;\r\n            }\r\n        }\r\n        revert(\"Resource not found\");\r\n    }\r\n\r\n    function upvoteResource(uint256 id) public {\r\n        for (uint256 i = 0; i < resources.length; i++) {\r\n            if (resources[i].id == id) {\r\n                require(resources[i].validated, \"Resource must be validated to receive upvotes\");\r\n                resources[i].upvotes++;\r\n                emit ResourceUpvoted(id, msg.sender, resources[i].upvotes);\r\n\r\n                uint256 reward = calculateUpvoteReward(resources[i].upvotes);\r\n                tokenContract.transfer(resources[i].uploader, reward);\r\n                emit TokensRewarded(resources[i].uploader, reward);\r\n                return;\r\n            }\r\n        }\r\n        revert(\"Resource not found\");\r\n    }\r\n\r\n    function reportResource(uint256 id) public {\r\n        for (uint256 i = 0; i < resources.length; i++) {\r\n            if (resources[i].id == id) {\r\n                resources[i].reports++;\r\n                emit ResourceReported(id, msg.sender, resources[i].reports);\r\n                return;\r\n            }\r\n        }\r\n        revert(\"Resource not found\");\r\n    }\r\n\r\n    function calculateUploadReward() internal view returns (uint256) {\r\n        uint256 circulation = tokenContract.totalSupply();\r\n        return circulation / 10000;\r\n    }\r\n\r\n    function calculateUpvoteReward(uint256 upvotes) internal view returns (uint256) {\r\n        uint256 circulation = tokenContract.totalSupply();\r\n        return (circulation / 100000) * upvotes;\r\n    }\r\n\r\n    function getResource(uint256 id) public view returns (Resource memory) {\r\n        for (uint256 i = 0; i < resources.length; i++) {\r\n            if (resources[i].id == id) {\r\n                return resources[i];\r\n            }\r\n        }\r\n        revert(\"Resource not found\");\r\n    }\r\n}\r\n",
  "sourcePath": "C:\\Users\\Mark\\Desktop\\meggy\\CS4207-Blockchain\\contracts\\AcademicResources.sol",
  "compiler": {
    "name": "solc",
    "version": "0.8.0+commit.c7dfd78e.Emscripten.clang"
  },
  "schemaVersion": "3.4.16",
  "updatedAt": "2024-12-08T00:01:32.359Z",
  "networkType": "ethereum",
  "devdoc": {
    "kind": "dev",
    "methods": {},
    "version": 1
  },
  "userdoc": {
    "kind": "user",
    "methods": {},
    "version": 1
  }
}