{
  "contractName": "AcademicResources",
  "abi": [
    {
      "inputs": [
        {
          "internalType": "address",
          "name": "_tokenContractAddress",
          "type": "address"
        }
      ],
      "stateMutability": "nonpayable",
      "type": "constructor"
    },
    {
      "anonymous": false,
      "inputs": [
        {
          "indexed": false,
          "internalType": "uint256",
          "name": "id",
          "type": "uint256"
        },
        {
          "indexed": false,
          "internalType": "address",
          "name": "reporter",
          "type": "address"
        },
        {
          "indexed": false,
          "internalType": "uint256",
          "name": "reportCount",
          "type": "uint256"
        }
      ],
      "name": "ResourceReported",
      "type": "event"
    },
    {
      "anonymous": false,
      "inputs": [
        {
          "indexed": false,
          "internalType": "uint256",
          "name": "id",
          "type": "uint256"
        },
        {
          "indexed": false,
          "internalType": "string",
          "name": "name",
          "type": "string"
        },
        {
          "indexed": false,
          "internalType": "string",
          "name": "url",
          "type": "string"
        },
        {
          "indexed": false,
          "internalType": "address",
          "name": "uploader",
          "type": "address"
        }
      ],
      "name": "ResourceUploaded",
      "type": "event"
    },
    {
      "anonymous": false,
      "inputs": [
        {
          "indexed": false,
          "internalType": "uint256",
          "name": "id",
          "type": "uint256"
        },
        {
          "indexed": false,
          "internalType": "address",
          "name": "upvoter",
          "type": "address"
        },
        {
          "indexed": false,
          "internalType": "uint256",
          "name": "upvoteCount",
          "type": "uint256"
        }
      ],
      "name": "ResourceUpvoted",
      "type": "event"
    },
    {
      "inputs": [
        {
          "internalType": "uint256",
          "name": "",
          "type": "uint256"
        }
      ],
      "name": "reports",
      "outputs": [
        {
          "internalType": "uint256",
          "name": "",
          "type": "uint256"
        }
      ],
      "stateMutability": "view",
      "type": "function",
      "constant": true
    },
    {
      "inputs": [
        {
          "internalType": "uint256",
          "name": "",
          "type": "uint256"
        }
      ],
      "name": "upvotes",
      "outputs": [
        {
          "internalType": "uint256",
          "name": "",
          "type": "uint256"
        }
      ],
      "stateMutability": "view",
      "type": "function",
      "constant": true
    },
    {
      "inputs": [
        {
          "internalType": "string",
          "name": "name",
          "type": "string"
        },
        {
          "internalType": "string",
          "name": "url",
          "type": "string"
        }
      ],
      "name": "uploadResource",
      "outputs": [],
      "stateMutability": "nonpayable",
      "type": "function"
    },
    {
      "inputs": [],
      "name": "getResourceCount",
      "outputs": [
        {
          "internalType": "uint256",
          "name": "",
          "type": "uint256"
        }
      ],
      "stateMutability": "view",
      "type": "function",
      "constant": true
    },
    {
      "inputs": [
        {
          "internalType": "uint256",
          "name": "id",
          "type": "uint256"
        }
      ],
      "name": "getResource",
      "outputs": [
        {
          "internalType": "string",
          "name": "",
          "type": "string"
        },
        {
          "internalType": "string",
          "name": "",
          "type": "string"
        },
        {
          "internalType": "address",
          "name": "",
          "type": "address"
        }
      ],
      "stateMutability": "view",
      "type": "function",
      "constant": true
    },
    {
      "inputs": [
        {
          "internalType": "uint256",
          "name": "id",
          "type": "uint256"
        }
      ],
      "name": "getResourceWithReports",
      "outputs": [
        {
          "internalType": "string",
          "name": "",
          "type": "string"
        },
        {
          "internalType": "string",
          "name": "",
          "type": "string"
        },
        {
          "internalType": "address",
          "name": "",
          "type": "address"
        },
        {
          "internalType": "uint256",
          "name": "",
          "type": "uint256"
        }
      ],
      "stateMutability": "view",
      "type": "function",
      "constant": true
    },
    {
      "inputs": [
        {
          "internalType": "uint256",
          "name": "id",
          "type": "uint256"
        }
      ],
      "name": "reportResource",
      "outputs": [],
      "stateMutability": "nonpayable",
      "type": "function"
    },
    {
      "inputs": [
        {
          "internalType": "uint256",
          "name": "id",
          "type": "uint256"
        }
      ],
      "name": "upvoteResource",
      "outputs": [],
      "stateMutability": "nonpayable",
      "type": "function"
    }
  ],
  "bytecode": "0x608060405260016003553480156200001657600080fd5b506040516200179f3803806200179f83398181016040528101906200003c91906200009b565b80600460006101000a81548173ffffffffffffffffffffffffffffffffffffffff021916908373ffffffffffffffffffffffffffffffffffffffff1602179055505062000115565b6000815190506200009581620000fb565b92915050565b600060208284031215620000ae57600080fd5b6000620000be8482850162000084565b91505092915050565b6000620000d482620000db565b9050919050565b600073ffffffffffffffffffffffffffffffffffffffff82169050919050565b6200010681620000c7565b81146200011257600080fd5b50565b61167a80620001256000396000f3fe608060405234801561001057600080fd5b50600436106100885760003560e01c8063a34fcf1f1161005b578063a34fcf1f14610129578063be7fded014610145578063c942adf714610161578063f41946d21461019157610088565b80631e8fca2d1461008d5780634e759dfa146100bf57806396114c3f146100db5780639f96de0f1461010b575b600080fd5b6100a760048036038101906100a29190610eee565b6101c4565b6040516100b693929190611080565b60405180910390f35b6100d960048036038101906100d49190610eee565b6104ab565b005b6100f560048036038101906100f09190610eee565b6105e7565b6040516101029190611178565b60405180910390f35b6101136105ff565b6040516101209190611178565b60405180910390f35b610143600480360381019061013e9190610eee565b61060b565b005b61015f600480360381019061015a9190610e82565b610747565b005b61017b60048036038101906101769190610eee565b610a6a565b6040516101889190611178565b60405180910390f35b6101ab60048036038101906101a69190610eee565b610a82565b6040516101bb94939291906110c5565b60405180910390f35b606080600080600090505b600080549050811015610468578460008281548110610217577f4e487b7100000000000000000000000000000000000000000000000000000000600052603260045260246000fd5b90600052602060002090600402016000015414156104555760008181548110610269577f4e487b7100000000000000000000000000000000000000000000000000000000600052603260045260246000fd5b9060005260206000209060040201600101600082815481106102b4577f4e487b7100000000000000000000000000000000000000000000000000000000600052603260045260246000fd5b9060005260206000209060040201600201600083815481106102ff577f4e487b7100000000000000000000000000000000000000000000000000000000600052603260045260246000fd5b906000526020600020906004020160030160009054906101000a900473ffffffffffffffffffffffffffffffffffffffff1682805461033d906114f0565b80601f0160208091040260200160405190810160405280929190818152602001828054610369906114f0565b80156103b65780601f1061038b576101008083540402835291602001916103b6565b820191906000526020600020905b81548152906001019060200180831161039957829003601f168201915b505050505092508180546103c9906114f0565b80601f01602080910402602001604051908101604052809291908181526020018280546103f5906114f0565b80156104425780601f1061041757610100808354040283529160200191610442565b820191906000526020600020905b81548152906001019060200180831161042557829003601f168201915b50505050509150935093509350506104a4565b808061046090611522565b9150506101cf565b506040517f08c379a000000000000000000000000000000000000000000000000000000000815260040161049b90611158565b60405180910390fd5b9193909250565b6000805b6000805490508110156105a25782600082815481106104f7577f4e487b7100000000000000000000000000000000000000000000000000000000600052603260045260246000fd5b906000526020600020906004020160000154141561058f576001915060026000848152602001908152602001600020600081548092919061053790611522565b91905055507f1cd44d2d873ab12bc74a81ca2286675a9ebd0e68588a5a5dbe5c091837be759c8333600260008781526020019081526020016000205460405161058293929190611193565b60405180910390a16105a2565b808061059a90611522565b9150506104af565b50806105e3576040517f08c379a00000000000000000000000000000000000000000000000000000000081526004016105da90611158565b60405180910390fd5b5050565b60026020528060005260406000206000915090505481565b60008080549050905090565b6000805b600080549050811015610702578260008281548110610657577f4e487b7100000000000000000000000000000000000000000000000000000000600052603260045260246000fd5b90600052602060002090600402016000015414156106ef576001915060016000848152602001908152602001600020600081548092919061069790611522565b91905055507f44c008878b9c90cf7b4617fdb2fd8ba37dadbfdd0774e015992889934a4e4974833360016000878152602001908152602001600020546040516106e293929190611193565b60405180910390a1610702565b80806106fa90611522565b91505061060f565b5080610743576040517f08c379a000000000000000000000000000000000000000000000000000000000815260040161073a90611158565b60405180910390fd5b5050565b600082511161078b576040517f08c379a000000000000000000000000000000000000000000000000000000000815260040161078290611118565b60405180910390fd5b60008151116107cf576040517f08c379a00000000000000000000000000000000000000000000000000000000081526004016107c690611138565b60405180910390fd5b6000604051806080016040528060035481526020018481526020018381526020013373ffffffffffffffffffffffffffffffffffffffff168152509080600181540180825580915050600190039060005260206000209060040201600090919091909150600082015181600001556020820151816001019080519060200190610859929190610d4d565b506040820151816002019080519060200190610876929190610d4d565b5060608201518160030160006101000a81548173ffffffffffffffffffffffffffffffffffffffff021916908373ffffffffffffffffffffffffffffffffffffffff16021790555050507ff3d3a5532c67b1c6215d25f3cf6f5743b00c0da8f605508a61407a51164461f26003548383336040516108f794939291906111ca565b60405180910390a16000600460009054906101000a900473ffffffffffffffffffffffffffffffffffffffff1673ffffffffffffffffffffffffffffffffffffffff1663313ce5676040518163ffffffff1660e01b815260040160206040518083038186803b15801561096957600080fd5b505afa15801561097d573d6000803e3d6000fd5b505050506040513d601f19601f820116820180604052508101906109a19190610f17565b60ff16600a6109b091906112ed565b600a6109bc919061140b565b9050600460009054906101000a900473ffffffffffffffffffffffffffffffffffffffff1673ffffffffffffffffffffffffffffffffffffffff166340c10f1933836040518363ffffffff1660e01b8152600401610a1b929190611057565b600060405180830381600087803b158015610a3557600080fd5b505af1158015610a49573d6000803e3d6000fd5b5050505060036000815480929190610a6090611522565b9190505550505050565b60016020528060005260406000206000915090505481565b60608060008060005b600080549050811015610d0a578560008281548110610ad3577f4e487b7100000000000000000000000000000000000000000000000000000000600052603260045260246000fd5b9060005260206000209060040201600001541415610cf7576000808281548110610b26577f4e487b7100000000000000000000000000000000000000000000000000000000600052603260045260246000fd5b906000526020600020906004020160405180608001604052908160008201548152602001600182018054610b59906114f0565b80601f0160208091040260200160405190810160405280929190818152602001828054610b85906114f0565b8015610bd25780601f10610ba757610100808354040283529160200191610bd2565b820191906000526020600020905b815481529060010190602001808311610bb557829003601f168201915b50505050508152602001600282018054610beb906114f0565b80601f0160208091040260200160405190810160405280929190818152602001828054610c17906114f0565b8015610c645780601f10610c3957610100808354040283529160200191610c64565b820191906000526020600020905b815481529060010190602001808311610c4757829003601f168201915b505050505081526020016003820160009054906101000a900473ffffffffffffffffffffffffffffffffffffffff1673ffffffffffffffffffffffffffffffffffffffff1673ffffffffffffffffffffffffffffffffffffffff16815250509050806020015181604001518260600151600160008b81526020019081526020016000205495509550955095505050610d46565b8080610d0290611522565b915050610a8b565b506040517f08c379a0000000000000000000000000000000000000000000000000000000008152600401610d3d90611158565b60405180910390fd5b9193509193565b828054610d59906114f0565b90600052602060002090601f016020900481019282610d7b5760008555610dc2565b82601f10610d9457805160ff1916838001178555610dc2565b82800160010185558215610dc2579182015b82811115610dc1578251825591602001919060010190610da6565b5b509050610dcf9190610dd3565b5090565b5b80821115610dec576000816000905550600101610dd4565b5090565b6000610e03610dfe8461124e565b61121d565b905082815260208101848484011115610e1b57600080fd5b610e268482856114ae565b509392505050565b600082601f830112610e3f57600080fd5b8135610e4f848260208601610df0565b91505092915050565b600081359050610e6781611616565b92915050565b600081519050610e7c8161162d565b92915050565b60008060408385031215610e9557600080fd5b600083013567ffffffffffffffff811115610eaf57600080fd5b610ebb85828601610e2e565b925050602083013567ffffffffffffffff811115610ed857600080fd5b610ee485828601610e2e565b9150509250929050565b600060208284031215610f0057600080fd5b6000610f0e84828501610e58565b91505092915050565b600060208284031215610f2957600080fd5b6000610f3784828501610e6d565b91505092915050565b610f4981611465565b82525050565b6000610f5a8261127e565b610f648185611289565b9350610f748185602086016114bd565b610f7d816115f8565b840191505092915050565b6000610f95601983611289565b91507f5265736f75726365206e616d65206973207265717569726564000000000000006000830152602082019050919050565b6000610fd5601883611289565b91507f5265736f757263652055524c20697320726571756972656400000000000000006000830152602082019050919050565b6000611015601283611289565b91507f5265736f75726365206e6f7420666f756e6400000000000000000000000000006000830152602082019050919050565b61105181611497565b82525050565b600060408201905061106c6000830185610f40565b6110796020830184611048565b9392505050565b6000606082019050818103600083015261109a8186610f4f565b905081810360208301526110ae8185610f4f565b90506110bd6040830184610f40565b949350505050565b600060808201905081810360008301526110df8187610f4f565b905081810360208301526110f38186610f4f565b90506111026040830185610f40565b61110f6060830184611048565b95945050505050565b6000602082019050818103600083015261113181610f88565b9050919050565b6000602082019050818103600083015261115181610fc8565b9050919050565b6000602082019050818103600083015261117181611008565b9050919050565b600060208201905061118d6000830184611048565b92915050565b60006060820190506111a86000830186611048565b6111b56020830185610f40565b6111c26040830184611048565b949350505050565b60006080820190506111df6000830187611048565b81810360208301526111f18186610f4f565b905081810360408301526112058185610f4f565b90506112146060830184610f40565b95945050505050565b6000604051905081810181811067ffffffffffffffff82111715611244576112436115c9565b5b8060405250919050565b600067ffffffffffffffff821115611269576112686115c9565b5b601f19601f8301169050602081019050919050565b600081519050919050565b600082825260208201905092915050565b6000808291508390505b60018511156112e4578086048111156112c0576112bf61156b565b5b60018516156112cf5780820291505b80810290506112dd85611609565b94506112a4565b94509492505050565b60006112f882611497565b915061130383611497565b92506113307fffffffffffffffffffffffffffffffffffffffffffffffffffffffffffffffff8484611338565b905092915050565b6000826113485760019050611404565b816113565760009050611404565b816001811461136c5760028114611376576113a5565b6001915050611404565b60ff8411156113885761138761156b565b5b8360020a91508482111561139f5761139e61156b565b5b50611404565b5060208310610133831016604e8410600b84101617156113da5782820a9050838111156113d5576113d461156b565b5b611404565b6113e7848484600161129a565b925090508184048111156113fe576113fd61156b565b5b81810290505b9392505050565b600061141682611497565b915061142183611497565b9250817fffffffffffffffffffffffffffffffffffffffffffffffffffffffffffffffff048311821515161561145a5761145961156b565b5b828202905092915050565b600061147082611477565b9050919050565b600073ffffffffffffffffffffffffffffffffffffffff82169050919050565b6000819050919050565b600060ff82169050919050565b82818337600083830152505050565b60005b838110156114db5780820151818401526020810190506114c0565b838111156114ea576000848401525b50505050565b6000600282049050600182168061150857607f821691505b6020821081141561151c5761151b61159a565b5b50919050565b600061152d82611497565b91507fffffffffffffffffffffffffffffffffffffffffffffffffffffffffffffffff8214156115605761155f61156b565b5b600182019050919050565b7f4e487b7100000000000000000000000000000000000000000000000000000000600052601160045260246000fd5b7f4e487b7100000000000000000000000000000000000000000000000000000000600052602260045260246000fd5b7f4e487b7100000000000000000000000000000000000000000000000000000000600052604160045260246000fd5b6000601f19601f8301169050919050565b60008160011c9050919050565b61161f81611497565b811461162a57600080fd5b50565b611636816114a1565b811461164157600080fd5b5056fea264697066735822122037625205fd2efb8846578e6092044e20a524747276b234d1ef28690306a22e5364736f6c63430008000033",
  "immutableReferences": {},
  "source": "// SPDX-License-Identifier: MIT \r\npragma solidity ^0.8.0;\r\n\r\nimport \"./AcademicToken.sol\";\r\n\r\n\r\ncontract AcademicResources {\r\n    // Resource structure\r\n    struct Resource {\r\n        uint256 id;\r\n        string name;\r\n        string url;\r\n        address uploader;\r\n    }\r\n\r\n    // List of resources\r\n    Resource[] private resources;\r\n\r\n    // Mapping to track reports for resources (key = resource ID)\r\n    mapping(uint256 => uint256) public reports;\r\n    mapping(uint256 => uint256) public upvotes;\r\n\r\n    // Resource ID tracker\r\n    uint256 private nextResourceId = 1;\r\n\r\n    AcademicToken private tokenContract;\r\n\r\n    // Events (for updating logs)\r\n    event ResourceUploaded(uint256 id, string name, string url, address uploader);\r\n    event ResourceReported(uint256 id, address reporter, uint256 reportCount);\r\n    event ResourceUpvoted(uint256 id, address upvoter, uint256 upvoteCount);\r\n\r\n    constructor(address _tokenContractAddress){\r\n        tokenContract =  AcademicToken(_tokenContractAddress);\r\n    }\r\n    // Upload a new resource\r\n    function uploadResource(string memory name, string memory url) public {\r\n\r\n        //checks if they're empty\r\n        require(bytes(name).length > 0, \"Resource name is required\");\r\n        require(bytes(url).length > 0, \"Resource URL is required\");\r\n\r\n        // create an instance of resource and add it to the array\r\n        resources.push(Resource({\r\n            id: nextResourceId,\r\n            name: name,\r\n            url: url,\r\n            uploader: msg.sender //the ETH address of the user calling the func\r\n        }));\r\n    \r\n        emit ResourceUploaded(nextResourceId, name, url, msg.sender);\r\n\r\n        uint256 rewardAmount = 10 * (10 ** uint256(tokenContract.decimals()));\r\n        tokenContract.mint(msg.sender, rewardAmount);\r\n\r\n        nextResourceId++;\r\n\r\n    }\r\n\r\n    // Get the total number of resources\r\n    function getResourceCount() public view returns (uint256) {\r\n        return resources.length;\r\n    }\r\n\r\n    // Get a specific resource by ID\r\n    function getResource(uint256 id) public view returns (string memory, string memory, address) {\r\n        for (uint256 i = 0; i < resources.length; i++) {\r\n            if (resources[i].id == id) {\r\n                return (resources[i].name, resources[i].url, resources[i].uploader);\r\n            }\r\n        }\r\n        revert(\"Resource not found\");\r\n    }\r\n\r\n    //function for faculty to return a resource along with how many reports it has\r\n    function getResourceWithReports(uint256 id) public view returns (string memory, string memory, address, uint256) {\r\n    for (uint256 i = 0; i < resources.length; i++) {\r\n        if (resources[i].id == id) {\r\n            Resource memory resource = resources[i];\r\n            return (\r\n                resource.name,\r\n                resource.url,\r\n                resource.uploader,\r\n                reports[id] // Return the report count from the mapping\r\n            );\r\n        }\r\n    }\r\n    revert(\"Resource not found\");\r\n    }\r\n\r\n\r\n    // Report a resource\r\n    function reportResource(uint256 id) public {\r\n        bool resourceExists = false;\r\n\r\n        // Check if the resource exists and increment its report count\r\n        for (uint256 i = 0; i < resources.length; i++) {\r\n            if (resources[i].id == id) {\r\n                resourceExists = true;\r\n                reports[id]++;\r\n                emit ResourceReported(id, msg.sender, reports[id]);\r\n                break;\r\n            }\r\n        }\r\n\r\n        require(resourceExists, \"Resource not found\");\r\n    }\r\n\r\n    function upvoteResource(uint256 id) public {\r\n        bool resourceExists = false;\r\n\r\n        // Check if the resource exists and increment its report count\r\n        for (uint256 i = 0; i < resources.length; i++) {\r\n            if (resources[i].id == id) {\r\n                resourceExists = true;\r\n                upvotes[id]++;\r\n                emit ResourceUpvoted(id, msg.sender, upvotes[id]);\r\n                break;\r\n            }\r\n        }\r\n\r\n        require(resourceExists, \"Resource not found\");\r\n    }\r\n}\r\n",
  "sourcePath": "C:\\Users\\markh\\OneDrive\\Desktop\\meggy\\cs4207-blockchain\\contracts\\AcademicResources.sol",
  "compiler": {
    "name": "solc",
    "version": "0.8.0+commit.c7dfd78e.Emscripten.clang"
  },
  "schemaVersion": "3.4.16",
  "updatedAt": "2024-12-07T18:15:19.751Z",
  "networkType": "ethereum",
  "devdoc": {
    "kind": "dev",
    "methods": {},
    "version": 1
  },
  "userdoc": {
    "kind": "user",
    "methods": {},
    "version": 1
  }
}