{
  "contractName": "AcademicResources",
  "abi": [
    {
      "anonymous": false,
      "inputs": [
        {
          "indexed": false,
          "internalType": "uint256",
          "name": "id",
          "type": "uint256"
        },
        {
          "indexed": false,
          "internalType": "address",
          "name": "reporter",
          "type": "address"
        },
        {
          "indexed": false,
          "internalType": "uint256",
          "name": "reportCount",
          "type": "uint256"
        }
      ],
      "name": "ResourceReported",
      "type": "event"
    },
    {
      "anonymous": false,
      "inputs": [
        {
          "indexed": false,
          "internalType": "uint256",
          "name": "id",
          "type": "uint256"
        },
        {
          "indexed": false,
          "internalType": "string",
          "name": "name",
          "type": "string"
        },
        {
          "indexed": false,
          "internalType": "string",
          "name": "url",
          "type": "string"
        },
        {
          "indexed": false,
          "internalType": "address",
          "name": "uploader",
          "type": "address"
        }
      ],
      "name": "ResourceUploaded",
      "type": "event"
    },
    {
      "inputs": [
        {
          "internalType": "uint256",
          "name": "",
          "type": "uint256"
        }
      ],
      "name": "reports",
      "outputs": [
        {
          "internalType": "uint256",
          "name": "",
          "type": "uint256"
        }
      ],
      "stateMutability": "view",
      "type": "function",
      "constant": true
    },
    {
      "inputs": [
        {
          "internalType": "string",
          "name": "name",
          "type": "string"
        },
        {
          "internalType": "string",
          "name": "url",
          "type": "string"
        }
      ],
      "name": "uploadResource",
      "outputs": [],
      "stateMutability": "nonpayable",
      "type": "function"
    },
    {
      "inputs": [],
      "name": "getResourceCount",
      "outputs": [
        {
          "internalType": "uint256",
          "name": "",
          "type": "uint256"
        }
      ],
      "stateMutability": "view",
      "type": "function",
      "constant": true
    },
    {
      "inputs": [
        {
          "internalType": "uint256",
          "name": "id",
          "type": "uint256"
        }
      ],
      "name": "getResource",
      "outputs": [
        {
          "internalType": "string",
          "name": "",
          "type": "string"
        },
        {
          "internalType": "string",
          "name": "",
          "type": "string"
        },
        {
          "internalType": "address",
          "name": "",
          "type": "address"
        }
      ],
      "stateMutability": "view",
      "type": "function",
      "constant": true
    },
    {
      "inputs": [
        {
          "internalType": "uint256",
          "name": "id",
          "type": "uint256"
        }
      ],
      "name": "getResourceWithReports",
      "outputs": [
        {
          "internalType": "string",
          "name": "",
          "type": "string"
        },
        {
          "internalType": "string",
          "name": "",
          "type": "string"
        },
        {
          "internalType": "address",
          "name": "",
          "type": "address"
        },
        {
          "internalType": "uint256",
          "name": "",
          "type": "uint256"
        }
      ],
      "stateMutability": "view",
      "type": "function",
      "constant": true
    },
    {
      "inputs": [
        {
          "internalType": "uint256",
          "name": "id",
          "type": "uint256"
        }
      ],
      "name": "reportResource",
      "outputs": [],
      "stateMutability": "nonpayable",
      "type": "function"
    }
  ],
  "bytecode": "0x6080604052600160025534801561001557600080fd5b50611102806100256000396000f3fe608060405234801561001057600080fd5b50600436106100625760003560e01c80631e8fca2d146100675780639f96de0f14610099578063a34fcf1f146100b7578063be7fded0146100d3578063c942adf7146100ef578063f41946d21461011f575b600080fd5b610081600480360381019061007c9190610bc4565b610152565b60405161009093929190610d04565b60405180910390f35b6100a1610439565b6040516100ae9190610dfc565b60405180910390f35b6100d160048036038101906100cc9190610bc4565b610445565b005b6100ed60048036038101906100e89190610b58565b610581565b005b61010960048036038101906101049190610bc4565b610755565b6040516101169190610dfc565b60405180910390f35b61013960048036038101906101349190610bc4565b61076d565b6040516101499493929190610d49565b60405180910390f35b606080600080600090505b6000805490508110156103f65784600082815481106101a5577f4e487b7100000000000000000000000000000000000000000000000000000000600052603260045260246000fd5b90600052602060002090600402016000015414156103e357600081815481106101f7577f4e487b7100000000000000000000000000000000000000000000000000000000600052603260045260246000fd5b906000526020600020906004020160010160008281548110610242577f4e487b7100000000000000000000000000000000000000000000000000000000600052603260045260246000fd5b90600052602060002090600402016002016000838154811061028d577f4e487b7100000000000000000000000000000000000000000000000000000000600052603260045260246000fd5b906000526020600020906004020160030160009054906101000a900473ffffffffffffffffffffffffffffffffffffffff168280546102cb90610f9c565b80601f01602080910402602001604051908101604052809291908181526020018280546102f790610f9c565b80156103445780601f1061031957610100808354040283529160200191610344565b820191906000526020600020905b81548152906001019060200180831161032757829003601f168201915b5050505050925081805461035790610f9c565b80601f016020809104026020016040519081016040528092919081815260200182805461038390610f9c565b80156103d05780601f106103a5576101008083540402835291602001916103d0565b820191906000526020600020905b8154815290600101906020018083116103b357829003601f168201915b5050505050915093509350935050610432565b80806103ee90610fce565b91505061015d565b506040517f08c379a000000000000000000000000000000000000000000000000000000000815260040161042990610ddc565b60405180910390fd5b9193909250565b60008080549050905090565b6000805b60008054905081101561053c578260008281548110610491577f4e487b7100000000000000000000000000000000000000000000000000000000600052603260045260246000fd5b906000526020600020906004020160000154141561052957600191506001600084815260200190815260200160002060008154809291906104d190610fce565b91905055507f44c008878b9c90cf7b4617fdb2fd8ba37dadbfdd0774e015992889934a4e49748333600160008781526020019081526020016000205460405161051c93929190610e17565b60405180910390a161053c565b808061053490610fce565b915050610449565b508061057d576040517f08c379a000000000000000000000000000000000000000000000000000000000815260040161057490610ddc565b60405180910390fd5b5050565b60008251116105c5576040517f08c379a00000000000000000000000000000000000000000000000000000000081526004016105bc90610d9c565b60405180910390fd5b6000815111610609576040517f08c379a000000000000000000000000000000000000000000000000000000000815260040161060090610dbc565b60405180910390fd5b6000604051806080016040528060025481526020018481526020018381526020013373ffffffffffffffffffffffffffffffffffffffff168152509080600181540180825580915050600190039060005260206000209060040201600090919091909150600082015181600001556020820151816001019080519060200190610693929190610a38565b5060408201518160020190805190602001906106b0929190610a38565b5060608201518160030160006101000a81548173ffffffffffffffffffffffffffffffffffffffff021916908373ffffffffffffffffffffffffffffffffffffffff16021790555050507ff3d3a5532c67b1c6215d25f3cf6f5743b00c0da8f605508a61407a51164461f26002548383336040516107319493929190610e4e565b60405180910390a16002600081548092919061074c90610fce565b91905055505050565b60016020528060005260406000206000915090505481565b60608060008060005b6000805490508110156109f55785600082815481106107be577f4e487b7100000000000000000000000000000000000000000000000000000000600052603260045260246000fd5b90600052602060002090600402016000015414156109e2576000808281548110610811577f4e487b7100000000000000000000000000000000000000000000000000000000600052603260045260246000fd5b90600052602060002090600402016040518060800160405290816000820154815260200160018201805461084490610f9c565b80601f016020809104026020016040519081016040528092919081815260200182805461087090610f9c565b80156108bd5780601f10610892576101008083540402835291602001916108bd565b820191906000526020600020905b8154815290600101906020018083116108a057829003601f168201915b505050505081526020016002820180546108d690610f9c565b80601f016020809104026020016040519081016040528092919081815260200182805461090290610f9c565b801561094f5780601f106109245761010080835404028352916020019161094f565b820191906000526020600020905b81548152906001019060200180831161093257829003601f168201915b505050505081526020016003820160009054906101000a900473ffffffffffffffffffffffffffffffffffffffff1673ffffffffffffffffffffffffffffffffffffffff1673ffffffffffffffffffffffffffffffffffffffff16815250509050806020015181604001518260600151600160008b81526020019081526020016000205495509550955095505050610a31565b80806109ed90610fce565b915050610776565b506040517f08c379a0000000000000000000000000000000000000000000000000000000008152600401610a2890610ddc565b60405180910390fd5b9193509193565b828054610a4490610f9c565b90600052602060002090601f016020900481019282610a665760008555610aad565b82601f10610a7f57805160ff1916838001178555610aad565b82800160010185558215610aad579182015b82811115610aac578251825591602001919060010190610a91565b5b509050610aba9190610abe565b5090565b5b80821115610ad7576000816000905550600101610abf565b5090565b6000610aee610ae984610ed2565b610ea1565b905082815260208101848484011115610b0657600080fd5b610b11848285610f5a565b509392505050565b600082601f830112610b2a57600080fd5b8135610b3a848260208601610adb565b91505092915050565b600081359050610b52816110b5565b92915050565b60008060408385031215610b6b57600080fd5b600083013567ffffffffffffffff811115610b8557600080fd5b610b9185828601610b19565b925050602083013567ffffffffffffffff811115610bae57600080fd5b610bba85828601610b19565b9150509250929050565b600060208284031215610bd657600080fd5b6000610be484828501610b43565b91505092915050565b610bf681610f1e565b82525050565b6000610c0782610f02565b610c118185610f0d565b9350610c21818560208601610f69565b610c2a816110a4565b840191505092915050565b6000610c42601983610f0d565b91507f5265736f75726365206e616d65206973207265717569726564000000000000006000830152602082019050919050565b6000610c82601883610f0d565b91507f5265736f757263652055524c20697320726571756972656400000000000000006000830152602082019050919050565b6000610cc2601283610f0d565b91507f5265736f75726365206e6f7420666f756e6400000000000000000000000000006000830152602082019050919050565b610cfe81610f50565b82525050565b60006060820190508181036000830152610d1e8186610bfc565b90508181036020830152610d328185610bfc565b9050610d416040830184610bed565b949350505050565b60006080820190508181036000830152610d638187610bfc565b90508181036020830152610d778186610bfc565b9050610d866040830185610bed565b610d936060830184610cf5565b95945050505050565b60006020820190508181036000830152610db581610c35565b9050919050565b60006020820190508181036000830152610dd581610c75565b9050919050565b60006020820190508181036000830152610df581610cb5565b9050919050565b6000602082019050610e116000830184610cf5565b92915050565b6000606082019050610e2c6000830186610cf5565b610e396020830185610bed565b610e466040830184610cf5565b949350505050565b6000608082019050610e636000830187610cf5565b8181036020830152610e758186610bfc565b90508181036040830152610e898185610bfc565b9050610e986060830184610bed565b95945050505050565b6000604051905081810181811067ffffffffffffffff82111715610ec857610ec7611075565b5b8060405250919050565b600067ffffffffffffffff821115610eed57610eec611075565b5b601f19601f8301169050602081019050919050565b600081519050919050565b600082825260208201905092915050565b6000610f2982610f30565b9050919050565b600073ffffffffffffffffffffffffffffffffffffffff82169050919050565b6000819050919050565b82818337600083830152505050565b60005b83811015610f87578082015181840152602081019050610f6c565b83811115610f96576000848401525b50505050565b60006002820490506001821680610fb457607f821691505b60208210811415610fc857610fc7611046565b5b50919050565b6000610fd982610f50565b91507fffffffffffffffffffffffffffffffffffffffffffffffffffffffffffffffff82141561100c5761100b611017565b5b600182019050919050565b7f4e487b7100000000000000000000000000000000000000000000000000000000600052601160045260246000fd5b7f4e487b7100000000000000000000000000000000000000000000000000000000600052602260045260246000fd5b7f4e487b7100000000000000000000000000000000000000000000000000000000600052604160045260246000fd5b6000601f19601f8301169050919050565b6110be81610f50565b81146110c957600080fd5b5056fea2646970667358221220fabd22c6c5398129aa2a7a8b2b0a5774743c07d754271caaae4a9fc6d8b7e97364736f6c63430008000033",
  "immutableReferences": {},
  "source": "// SPDX-License-Identifier: MIT \npragma solidity ^0.8.0;\n\ncontract AcademicResources {\n    // Resource structure\n    struct Resource {\n        uint256 id;\n        string name;\n        string url;\n        address uploader;\n    }\n\n    // List of resources\n    Resource[] private resources;\n\n    // Mapping to track reports for resources (key = resource ID)\n    mapping(uint256 => uint256) public reports;\n\n    // Resource ID tracker\n    uint256 private nextResourceId = 1;\n\n    // Events (for updating logs)\n    event ResourceUploaded(uint256 id, string name, string url, address uploader);\n    event ResourceReported(uint256 id, address reporter, uint256 reportCount);\n\n    // Upload a new resource\n    function uploadResource(string memory name, string memory url) public {\n\n        //checks if they're empty\n        require(bytes(name).length > 0, \"Resource name is required\");\n        require(bytes(url).length > 0, \"Resource URL is required\");\n\n        // create an instance of resource and add it to the array\n        resources.push(Resource({\n            id: nextResourceId,\n            name: name,\n            url: url,\n            uploader: msg.sender //the ETH address of the user calling the func\n        }));\n\n        emit ResourceUploaded(nextResourceId, name, url, msg.sender);\n        nextResourceId++;\n    }\n\n    // Get the total number of resources\n    function getResourceCount() public view returns (uint256) {\n        return resources.length;\n    }\n\n    // Get a specific resource by ID\n    function getResource(uint256 id) public view returns (string memory, string memory, address) {\n        for (uint256 i = 0; i < resources.length; i++) {\n            if (resources[i].id == id) {\n                return (resources[i].name, resources[i].url, resources[i].uploader);\n            }\n        }\n        revert(\"Resource not found\");\n    }\n\n    //function for faculty to return a resource along with how many reports it has\n    function getResourceWithReports(uint256 id) public view returns (string memory, string memory, address, uint256) {\n    for (uint256 i = 0; i < resources.length; i++) {\n        if (resources[i].id == id) {\n            Resource memory resource = resources[i];\n            return (\n                resource.name,\n                resource.url,\n                resource.uploader,\n                reports[id] // Fetch report count from the mapping\n            );\n        }\n    }\n    revert(\"Resource not found\");\n}\n\n    // Report a resource\n    function reportResource(uint256 id) public {\n        bool resourceExists = false;\n\n        // Check if the resource exists and increment its report count\n        for (uint256 i = 0; i < resources.length; i++) {\n            if (resources[i].id == id) {\n                resourceExists = true;\n                reports[id]++;\n                emit ResourceReported(id, msg.sender, reports[id]);\n                break;\n            }\n        }\n\n        require(resourceExists, \"Resource not found\");\n    }\n}\n",
  "sourcePath": "C:\\Users\\callu\\Documents\\Blockchain\\contracts\\AcademicResources.sol",
  "compiler": {
    "name": "solc",
    "version": "0.8.0+commit.c7dfd78e.Emscripten.clang"
  },
  "schemaVersion": "3.4.16",
  "updatedAt": "2024-12-04T17:45:59.700Z",
  "networkType": "ethereum",
  "devdoc": {
    "kind": "dev",
    "methods": {},
    "version": 1
  },
  "userdoc": {
    "kind": "user",
    "methods": {},
    "version": 1
  }
}