{
  "contractName": "Validator",
  "abi": [
    {
      "inputs": [
        {
          "internalType": "address",
          "name": "tokenAddress",
          "type": "address"
        }
      ],
      "stateMutability": "nonpayable",
      "type": "constructor"
    },
    {
      "anonymous": false,
      "inputs": [
        {
          "indexed": true,
          "internalType": "address",
          "name": "user",
          "type": "address"
        },
        {
          "indexed": false,
          "internalType": "uint256",
          "name": "amount",
          "type": "uint256"
        }
      ],
      "name": "TokensStaked",
      "type": "event"
    },
    {
      "anonymous": false,
      "inputs": [
        {
          "indexed": true,
          "internalType": "address",
          "name": "user",
          "type": "address"
        },
        {
          "indexed": false,
          "internalType": "uint256",
          "name": "amount",
          "type": "uint256"
        }
      ],
      "name": "TokensUnstaked",
      "type": "event"
    },
    {
      "anonymous": false,
      "inputs": [
        {
          "indexed": true,
          "internalType": "address",
          "name": "validator",
          "type": "address"
        },
        {
          "indexed": false,
          "internalType": "uint256",
          "name": "stake",
          "type": "uint256"
        }
      ],
      "name": "ValidatorAdded",
      "type": "event"
    },
    {
      "anonymous": false,
      "inputs": [
        {
          "indexed": true,
          "internalType": "address",
          "name": "validator",
          "type": "address"
        }
      ],
      "name": "ValidatorRemoved",
      "type": "event"
    },
    {
      "inputs": [],
      "name": "admin",
      "outputs": [
        {
          "internalType": "address",
          "name": "",
          "type": "address"
        }
      ],
      "stateMutability": "view",
      "type": "function",
      "constant": true
    },
    {
      "inputs": [],
      "name": "circulatingSupply",
      "outputs": [
        {
          "internalType": "uint256",
          "name": "",
          "type": "uint256"
        }
      ],
      "stateMutability": "view",
      "type": "function",
      "constant": true
    },
    {
      "inputs": [
        {
          "internalType": "address",
          "name": "",
          "type": "address"
        }
      ],
      "name": "facultyValidators",
      "outputs": [
        {
          "internalType": "bool",
          "name": "",
          "type": "bool"
        }
      ],
      "stateMutability": "view",
      "type": "function",
      "constant": true
    },
    {
      "inputs": [
        {
          "internalType": "address",
          "name": "",
          "type": "address"
        }
      ],
      "name": "isValidator",
      "outputs": [
        {
          "internalType": "bool",
          "name": "",
          "type": "bool"
        }
      ],
      "stateMutability": "view",
      "type": "function",
      "constant": true
    },
    {
      "inputs": [],
      "name": "minimumStake",
      "outputs": [
        {
          "internalType": "uint256",
          "name": "",
          "type": "uint256"
        }
      ],
      "stateMutability": "view",
      "type": "function",
      "constant": true
    },
    {
      "inputs": [
        {
          "internalType": "address",
          "name": "",
          "type": "address"
        }
      ],
      "name": "stakes",
      "outputs": [
        {
          "internalType": "uint256",
          "name": "",
          "type": "uint256"
        }
      ],
      "stateMutability": "view",
      "type": "function",
      "constant": true
    },
    {
      "inputs": [
        {
          "internalType": "uint256",
          "name": "",
          "type": "uint256"
        }
      ],
      "name": "studentValidators",
      "outputs": [
        {
          "internalType": "address",
          "name": "",
          "type": "address"
        }
      ],
      "stateMutability": "view",
      "type": "function",
      "constant": true
    },
    {
      "inputs": [],
      "name": "token",
      "outputs": [
        {
          "internalType": "contract AcademicToken",
          "name": "",
          "type": "address"
        }
      ],
      "stateMutability": "view",
      "type": "function",
      "constant": true
    },
    {
      "inputs": [
        {
          "internalType": "address",
          "name": "faculty",
          "type": "address"
        }
      ],
      "name": "addFacultyValidator",
      "outputs": [],
      "stateMutability": "nonpayable",
      "type": "function"
    },
    {
      "inputs": [
        {
          "internalType": "address",
          "name": "faculty",
          "type": "address"
        }
      ],
      "name": "removeFacultyValidator",
      "outputs": [],
      "stateMutability": "nonpayable",
      "type": "function"
    },
    {
      "inputs": [
        {
          "internalType": "address",
          "name": "newAdmin",
          "type": "address"
        }
      ],
      "name": "transferAdmin",
      "outputs": [],
      "stateMutability": "nonpayable",
      "type": "function"
    },
    {
      "inputs": [
        {
          "internalType": "uint256",
          "name": "amount",
          "type": "uint256"
        }
      ],
      "name": "stakeTokens",
      "outputs": [],
      "stateMutability": "nonpayable",
      "type": "function"
    },
    {
      "inputs": [
        {
          "internalType": "uint256",
          "name": "amount",
          "type": "uint256"
        }
      ],
      "name": "unstakeTokens",
      "outputs": [],
      "stateMutability": "nonpayable",
      "type": "function"
    },
    {
      "inputs": [],
      "name": "updateMinimumStake",
      "outputs": [],
      "stateMutability": "nonpayable",
      "type": "function"
    },
    {
      "inputs": [
        {
          "internalType": "address",
          "name": "validator",
          "type": "address"
        },
        {
          "internalType": "uint256",
          "name": "rewardAmount",
          "type": "uint256"
        }
      ],
      "name": "rewardValidator",
      "outputs": [],
      "stateMutability": "nonpayable",
      "type": "function"
    },
    {
      "inputs": [],
      "name": "getStudentValidators",
      "outputs": [
        {
          "internalType": "address[]",
          "name": "",
          "type": "address[]"
        }
      ],
      "stateMutability": "view",
      "type": "function",
      "constant": true
    },
    {
      "inputs": [],
      "name": "getFacultyValidators",
      "outputs": [
        {
          "internalType": "address[]",
          "name": "",
          "type": "address[]"
        }
      ],
      "stateMutability": "view",
      "type": "function",
      "constant": true
    }
  ],
  "bytecode": "0x60806040523480156200001157600080fd5b50604051620021f0380380620021f083398181016040528101906200003791906200019c565b806000806101000a81548173ffffffffffffffffffffffffffffffffffffffff021916908373ffffffffffffffffffffffffffffffffffffffff16021790555060008054906101000a900473ffffffffffffffffffffffffffffffffffffffff1673ffffffffffffffffffffffffffffffffffffffff166318160ddd6040518163ffffffff1660e01b815260040160206040518083038186803b158015620000de57600080fd5b505afa158015620000f3573d6000803e3d6000fd5b505050506040513d601f19601f82011682018060405250810190620001199190620001c8565b6004819055506005808190555033600760006101000a81548173ffffffffffffffffffffffffffffffffffffffff021916908373ffffffffffffffffffffffffffffffffffffffff1602179055505062000266565b6000815190506200017f8162000232565b92915050565b60008151905062000196816200024c565b92915050565b600060208284031215620001af57600080fd5b6000620001bf848285016200016e565b91505092915050565b600060208284031215620001db57600080fd5b6000620001eb8482850162000185565b91505092915050565b6000620002018262000208565b9050919050565b600073ffffffffffffffffffffffffffffffffffffffff82169050919050565b6000819050919050565b6200023d81620001f4565b81146200024957600080fd5b50565b620002578162000228565b81146200026357600080fd5b50565b611f7a80620002766000396000f3fe608060405234801561001057600080fd5b506004361061010b5760003560e01c8063bdbff2f1116100a2578063ec5ffac211610071578063ec5ffac214610290578063efc0cbef146102ae578063f851a440146102ca578063facd743b146102e8578063fc0c546a146103185761010b565b8063bdbff2f11461020a578063c495dd0b14610226578063cca2221414610230578063e1773b52146102605761010b565b806375829def116100de57806375829def14610196578063806e8f87146101b25780639358928b146101ce5780639bf2e23b146101ec5761010b565b806316934fc414610110578063608e4dd01461014057806373b012641461015c5780637547c7a31461017a575b600080fd5b61012a60048036038101906101259190611730565b610336565b6040516101379190611cba565b60405180910390f35b61015a600480360381019061015591906117be565b61034e565b005b61016461066d565b6040516101719190611b67565b60405180910390f35b610194600480360381019061018f91906117be565b6106fb565b005b6101b060048036038101906101ab9190611730565b6109f7565b005b6101cc60048036038101906101c79190611730565b610b3b565b005b6101d6610cf5565b6040516101e39190611cba565b60405180910390f35b6101f4610cfb565b6040516102019190611b67565b60405180910390f35b610224600480360381019061021f9190611759565b610f3f565b005b61022e611161565b005b61024a60048036038101906102459190611730565b61121d565b6040516102579190611b89565b60405180910390f35b61027a600480360381019061027591906117be565b61123d565b6040516102879190611aec565b60405180910390f35b61029861127c565b6040516102a59190611cba565b60405180910390f35b6102c860048036038101906102c39190611730565b611282565b005b6102d2611449565b6040516102df9190611aec565b60405180910390f35b61030260048036038101906102fd9190611730565b61146f565b60405161030f9190611b89565b60405180910390f35b61032061148f565b60405161032d9190611ba4565b60405180910390f35b60016020528060005260406000206000915090505481565b80600160003373ffffffffffffffffffffffffffffffffffffffff1673ffffffffffffffffffffffffffffffffffffffff1681526020019081526020016000205410156103d0576040517f08c379a00000000000000000000000000000000000000000000000000000000081526004016103c790611c7a565b60405180910390fd5b80600160003373ffffffffffffffffffffffffffffffffffffffff1673ffffffffffffffffffffffffffffffffffffffff168152602001908152602001600020600082825461041f9190611da6565b92505081905550600554600160003373ffffffffffffffffffffffffffffffffffffffff1673ffffffffffffffffffffffffffffffffffffffff168152602001908152602001600020541080156104bf5750600260003373ffffffffffffffffffffffffffffffffffffffff1673ffffffffffffffffffffffffffffffffffffffff16815260200190815260200160002060009054906101000a900460ff165b1561056d576000600260003373ffffffffffffffffffffffffffffffffffffffff1673ffffffffffffffffffffffffffffffffffffffff16815260200190815260200160002060006101000a81548160ff021916908315150217905550610525336114b3565b3373ffffffffffffffffffffffffffffffffffffffff167fe1434e25d6611e0db941968fdc97811c982ac1602e951637d206f5fdda9dd8f160405160405180910390a26105bc565b3373ffffffffffffffffffffffffffffffffffffffff167f9845e367b683334e5c0b12d7b81721ac518e649376fa65e3d68324e8f34f2679826040516105b39190611cba565b60405180910390a25b60008054906101000a900473ffffffffffffffffffffffffffffffffffffffff1673ffffffffffffffffffffffffffffffffffffffff1663a9059cbb33836040518363ffffffff1660e01b8152600401610617929190611b3e565b602060405180830381600087803b15801561063157600080fd5b505af1158015610645573d6000803e3d6000fd5b505050506040513d601f19601f820116820180604052508101906106699190611795565b5050565b606060038054806020026020016040519081016040528092919081815260200182805480156106f157602002820191906000526020600020905b8160009054906101000a900473ffffffffffffffffffffffffffffffffffffffff1673ffffffffffffffffffffffffffffffffffffffff16815260200190600101908083116106a7575b5050505050905090565b600554811015610740576040517f08c379a000000000000000000000000000000000000000000000000000000000815260040161073790611bda565b60405180910390fd5b60008054906101000a900473ffffffffffffffffffffffffffffffffffffffff1673ffffffffffffffffffffffffffffffffffffffff166323b872dd3330846040518463ffffffff1660e01b815260040161079d93929190611b07565b602060405180830381600087803b1580156107b757600080fd5b505af11580156107cb573d6000803e3d6000fd5b505050506040513d601f19601f820116820180604052508101906107ef9190611795565b5080600160003373ffffffffffffffffffffffffffffffffffffffff1673ffffffffffffffffffffffffffffffffffffffff168152602001908152602001600020600082825461083f9190611d1f565b92505081905550600260003373ffffffffffffffffffffffffffffffffffffffff1673ffffffffffffffffffffffffffffffffffffffff16815260200190815260200160002060009054906101000a900460ff166109a5576001600260003373ffffffffffffffffffffffffffffffffffffffff1673ffffffffffffffffffffffffffffffffffffffff16815260200190815260200160002060006101000a81548160ff0219169083151502179055506003339080600181540180825580915050600190039060005260206000200160009091909190916101000a81548173ffffffffffffffffffffffffffffffffffffffff021916908373ffffffffffffffffffffffffffffffffffffffff1602179055503373ffffffffffffffffffffffffffffffffffffffff167f9000b209805850a65058f21361a9978cb30f1413ed555553ab52a59b440b5d99826040516109989190611cba565b60405180910390a26109f4565b3373ffffffffffffffffffffffffffffffffffffffff167fb539ca1e5c8d398ddf1c41c30166f33404941683be4683319b57669a93dad4ef826040516109eb9190611cba565b60405180910390a25b50565b600760009054906101000a900473ffffffffffffffffffffffffffffffffffffffff1673ffffffffffffffffffffffffffffffffffffffff163373ffffffffffffffffffffffffffffffffffffffff1614610a87576040517f08c379a0000000000000000000000000000000000000000000000000000000008152600401610a7e90611bfa565b60405180910390fd5b600073ffffffffffffffffffffffffffffffffffffffff168173ffffffffffffffffffffffffffffffffffffffff161415610af7576040517f08c379a0000000000000000000000000000000000000000000000000000000008152600401610aee90611c3a565b60405180910390fd5b80600760006101000a81548173ffffffffffffffffffffffffffffffffffffffff021916908373ffffffffffffffffffffffffffffffffffffffff16021790555050565b600760009054906101000a900473ffffffffffffffffffffffffffffffffffffffff1673ffffffffffffffffffffffffffffffffffffffff163373ffffffffffffffffffffffffffffffffffffffff1614610bcb576040517f08c379a0000000000000000000000000000000000000000000000000000000008152600401610bc290611bfa565b60405180910390fd5b600660008273ffffffffffffffffffffffffffffffffffffffff1673ffffffffffffffffffffffffffffffffffffffff16815260200190815260200160002060009054906101000a900460ff16610c57576040517f08c379a0000000000000000000000000000000000000000000000000000000008152600401610c4e90611c9a565b60405180910390fd5b6000600660008373ffffffffffffffffffffffffffffffffffffffff1673ffffffffffffffffffffffffffffffffffffffff16815260200190815260200160002060006101000a81548160ff0219169083151502179055508073ffffffffffffffffffffffffffffffffffffffff167fe1434e25d6611e0db941968fdc97811c982ac1602e951637d206f5fdda9dd8f160405160405180910390a250565b60045481565b6060600060038054905067ffffffffffffffff811115610d44577f4e487b7100000000000000000000000000000000000000000000000000000000600052604160045260246000fd5b604051908082528060200260200182016040528015610d725781602001602082028036833780820191505090505b5090506000805b600380549050811015610f36576006600060038381548110610dc4577f4e487b7100000000000000000000000000000000000000000000000000000000600052603260045260246000fd5b9060005260206000200160009054906101000a900473ffffffffffffffffffffffffffffffffffffffff1673ffffffffffffffffffffffffffffffffffffffff1673ffffffffffffffffffffffffffffffffffffffff16815260200190815260200160002060009054906101000a900460ff1615610f235760038181548110610e76577f4e487b7100000000000000000000000000000000000000000000000000000000600052603260045260246000fd5b9060005260206000200160009054906101000a900473ffffffffffffffffffffffffffffffffffffffff16838381518110610eda577f4e487b7100000000000000000000000000000000000000000000000000000000600052603260045260246000fd5b602002602001019073ffffffffffffffffffffffffffffffffffffffff16908173ffffffffffffffffffffffffffffffffffffffff16815250508180610f1f90611e58565b9250505b8080610f2e90611e58565b915050610d79565b50819250505090565b600760009054906101000a900473ffffffffffffffffffffffffffffffffffffffff1673ffffffffffffffffffffffffffffffffffffffff163373ffffffffffffffffffffffffffffffffffffffff1614610fcf576040517f08c379a0000000000000000000000000000000000000000000000000000000008152600401610fc690611bfa565b60405180910390fd5b600260008373ffffffffffffffffffffffffffffffffffffffff1673ffffffffffffffffffffffffffffffffffffffff16815260200190815260200160002060009054906101000a900460ff16806110705750600660008373ffffffffffffffffffffffffffffffffffffffff1673ffffffffffffffffffffffffffffffffffffffff16815260200190815260200160002060009054906101000a900460ff165b6110af576040517f08c379a00000000000000000000000000000000000000000000000000000000081526004016110a690611c5a565b60405180910390fd5b60008054906101000a900473ffffffffffffffffffffffffffffffffffffffff1673ffffffffffffffffffffffffffffffffffffffff1663a9059cbb83836040518363ffffffff1660e01b815260040161110a929190611b3e565b602060405180830381600087803b15801561112457600080fd5b505af1158015611138573d6000803e3d6000fd5b505050506040513d601f19601f8201168201806040525081019061115c9190611795565b505050565b60008054906101000a900473ffffffffffffffffffffffffffffffffffffffff1673ffffffffffffffffffffffffffffffffffffffff166318160ddd6040518163ffffffff1660e01b815260040160206040518083038186803b1580156111c757600080fd5b505afa1580156111db573d6000803e3d6000fd5b505050506040513d601f19601f820116820180604052508101906111ff91906117e7565b6004819055506103e86004546112159190611d75565b600581905550565b60066020528060005260406000206000915054906101000a900460ff1681565b6003818154811061124d57600080fd5b906000526020600020016000915054906101000a900473ffffffffffffffffffffffffffffffffffffffff1681565b60055481565b600760009054906101000a900473ffffffffffffffffffffffffffffffffffffffff1673ffffffffffffffffffffffffffffffffffffffff163373ffffffffffffffffffffffffffffffffffffffff1614611312576040517f08c379a000000000000000000000000000000000000000000000000000000000815260040161130990611bfa565b60405180910390fd5b600660008273ffffffffffffffffffffffffffffffffffffffff1673ffffffffffffffffffffffffffffffffffffffff16815260200190815260200160002060009054906101000a900460ff161561139f576040517f08c379a000000000000000000000000000000000000000000000000000000000815260040161139690611c1a565b60405180910390fd5b6001600660008373ffffffffffffffffffffffffffffffffffffffff1673ffffffffffffffffffffffffffffffffffffffff16815260200190815260200160002060006101000a81548160ff0219169083151502179055508073ffffffffffffffffffffffffffffffffffffffff167f9000b209805850a65058f21361a9978cb30f1413ed555553ab52a59b440b5d99600060405161143e9190611bbf565b60405180910390a250565b600760009054906101000a900473ffffffffffffffffffffffffffffffffffffffff1681565b60026020528060005260406000206000915054906101000a900460ff1681565b60008054906101000a900473ffffffffffffffffffffffffffffffffffffffff1681565b60005b6003805490508110156116d8578173ffffffffffffffffffffffffffffffffffffffff1660038281548110611514577f4e487b7100000000000000000000000000000000000000000000000000000000600052603260045260246000fd5b9060005260206000200160009054906101000a900473ffffffffffffffffffffffffffffffffffffffff1673ffffffffffffffffffffffffffffffffffffffff1614156116c5576003600160038054905061156f9190611da6565b815481106115a6577f4e487b7100000000000000000000000000000000000000000000000000000000600052603260045260246000fd5b9060005260206000200160009054906101000a900473ffffffffffffffffffffffffffffffffffffffff166003828154811061160b577f4e487b7100000000000000000000000000000000000000000000000000000000600052603260045260246000fd5b9060005260206000200160006101000a81548173ffffffffffffffffffffffffffffffffffffffff021916908373ffffffffffffffffffffffffffffffffffffffff160217905550600380548061168b577f4e487b7100000000000000000000000000000000000000000000000000000000600052603160045260246000fd5b6001900381819060005260206000200160006101000a81549073ffffffffffffffffffffffffffffffffffffffff021916905590556116d8565b80806116d090611e58565b9150506114b6565b5050565b6000813590506116eb81611eff565b92915050565b60008151905061170081611f16565b92915050565b60008135905061171581611f2d565b92915050565b60008151905061172a81611f2d565b92915050565b60006020828403121561174257600080fd5b6000611750848285016116dc565b91505092915050565b6000806040838503121561176c57600080fd5b600061177a858286016116dc565b925050602061178b85828601611706565b9150509250929050565b6000602082840312156117a757600080fd5b60006117b5848285016116f1565b91505092915050565b6000602082840312156117d057600080fd5b60006117de84828501611706565b91505092915050565b6000602082840312156117f957600080fd5b60006118078482850161171b565b91505092915050565b600061181c8383611828565b60208301905092915050565b61183181611dda565b82525050565b61184081611dda565b82525050565b600061185182611ce5565b61185b8185611cfd565b935061186683611cd5565b8060005b8381101561189757815161187e8882611810565b975061188983611cf0565b92505060018101905061186a565b5085935050505092915050565b6118ad81611dec565b82525050565b6118bc81611e22565b82525050565b6118cb81611e46565b82525050565b60006118de602283611d0e565b91507f416d6f756e74206d757374206d65657420746865206d696e696d756d2073746160008301527f6b650000000000000000000000000000000000000000000000000000000000006020830152604082019050919050565b6000611944602683611d0e565b91507f4f6e6c79207468652061646d696e2063616e20706572666f726d20746869732060008301527f616374696f6e00000000000000000000000000000000000000000000000000006020830152604082019050919050565b60006119aa601b83611d0e565b91507f416c7265616479206120666163756c74792076616c696461746f7200000000006000830152602082019050919050565b60006119ea602083611d0e565b91507f4e65772061646d696e20616464726573732063616e6e6f74206265207a65726f6000830152602082019050919050565b6000611a2a600f83611d0e565b91507f4e6f7420612076616c696461746f7200000000000000000000000000000000006000830152602082019050919050565b6000611a6a601883611d0e565b91507f4e6f7420656e6f756768207374616b656420746f6b656e7300000000000000006000830152602082019050919050565b6000611aaa601783611d0e565b91507f4e6f74206120666163756c74792076616c696461746f720000000000000000006000830152602082019050919050565b611ae681611e18565b82525050565b6000602082019050611b016000830184611837565b92915050565b6000606082019050611b1c6000830186611837565b611b296020830185611837565b611b366040830184611add565b949350505050565b6000604082019050611b536000830185611837565b611b606020830184611add565b9392505050565b60006020820190508181036000830152611b818184611846565b905092915050565b6000602082019050611b9e60008301846118a4565b92915050565b6000602082019050611bb960008301846118b3565b92915050565b6000602082019050611bd460008301846118c2565b92915050565b60006020820190508181036000830152611bf3816118d1565b9050919050565b60006020820190508181036000830152611c1381611937565b9050919050565b60006020820190508181036000830152611c338161199d565b9050919050565b60006020820190508181036000830152611c53816119dd565b9050919050565b60006020820190508181036000830152611c7381611a1d565b9050919050565b60006020820190508181036000830152611c9381611a5d565b9050919050565b60006020820190508181036000830152611cb381611a9d565b9050919050565b6000602082019050611ccf6000830184611add565b92915050565b6000819050602082019050919050565b600081519050919050565b6000602082019050919050565b600082825260208201905092915050565b600082825260208201905092915050565b6000611d2a82611e18565b9150611d3583611e18565b9250827fffffffffffffffffffffffffffffffffffffffffffffffffffffffffffffffff03821115611d6a57611d69611ea1565b5b828201905092915050565b6000611d8082611e18565b9150611d8b83611e18565b925082611d9b57611d9a611ed0565b5b828204905092915050565b6000611db182611e18565b9150611dbc83611e18565b925082821015611dcf57611dce611ea1565b5b828203905092915050565b6000611de582611df8565b9050919050565b60008115159050919050565b600073ffffffffffffffffffffffffffffffffffffffff82169050919050565b6000819050919050565b6000611e2d82611e34565b9050919050565b6000611e3f82611df8565b9050919050565b6000611e5182611e18565b9050919050565b6000611e6382611e18565b91507fffffffffffffffffffffffffffffffffffffffffffffffffffffffffffffffff821415611e9657611e95611ea1565b5b600182019050919050565b7f4e487b7100000000000000000000000000000000000000000000000000000000600052601160045260246000fd5b7f4e487b7100000000000000000000000000000000000000000000000000000000600052601260045260246000fd5b611f0881611dda565b8114611f1357600080fd5b50565b611f1f81611dec565b8114611f2a57600080fd5b50565b611f3681611e18565b8114611f4157600080fd5b5056fea2646970667358221220bce58d0e6f3fcddc4b7d706f308657dfcdd95221dfd246b2842dea7836dc0a6064736f6c63430008000033",
  "immutableReferences": {},
  "source": "// SPDX-License-Identifier: MIT\r\npragma solidity ^0.8.0;\r\n\r\nimport \"./AcademicToken.sol\";\r\n\r\ncontract Validator {\r\n    AcademicToken public token;\r\n\r\n    mapping(address => uint256) public stakes;\r\n    mapping(address => bool) public isValidator;\r\n    address[] public studentValidators;\r\n\r\n    uint256 public circulatingSupply;\r\n    uint256 public minimumStake;\r\n\r\n    mapping(address => bool) public facultyValidators;\r\n\r\n    address public admin;\r\n\r\n    event ValidatorAdded(address indexed validator, uint256 stake);\r\n    event ValidatorRemoved(address indexed validator);\r\n    event TokensStaked(address indexed user, uint256 amount);\r\n    event TokensUnstaked(address indexed user, uint256 amount);\r\n\r\n    constructor(address tokenAddress) {\r\n        token = AcademicToken(tokenAddress);\r\n        circulatingSupply = token.totalSupply();\r\n        minimumStake = 5;\r\n        admin = msg.sender;\r\n    }\r\n\r\n    modifier onlyAdmin() {\r\n        require(msg.sender == admin, \"Only the admin can perform this action\");\r\n        _;\r\n    }\r\n\r\n    function addFacultyValidator(address faculty) public onlyAdmin {\r\n        require(!facultyValidators[faculty], \"Already a faculty validator\");\r\n        facultyValidators[faculty] = true;\r\n        emit ValidatorAdded(faculty, 0);\r\n    }\r\n\r\n    function removeFacultyValidator(address faculty) public onlyAdmin {\r\n        require(facultyValidators[faculty], \"Not a faculty validator\");\r\n        facultyValidators[faculty] = false;\r\n        emit ValidatorRemoved(faculty);\r\n    }\r\n\r\n    function transferAdmin(address newAdmin) public onlyAdmin {\r\n        require(newAdmin != address(0), \"New admin address cannot be zero\");\r\n        admin = newAdmin;\r\n    }\r\n\r\n    function stakeTokens(uint256 amount) public {\r\n        require(amount >= minimumStake, \"Amount must meet the minimum stake\");\r\n\r\n        token.transferFrom(msg.sender, address(this), amount);\r\n\r\n        stakes[msg.sender] += amount;\r\n\r\n        if (!isValidator[msg.sender]) {\r\n            isValidator[msg.sender] = true;\r\n            studentValidators.push(msg.sender);\r\n            emit ValidatorAdded(msg.sender, amount);\r\n        } else {\r\n            emit TokensStaked(msg.sender, amount);\r\n        }\r\n    }\r\n\r\n    function unstakeTokens(uint256 amount) public {\r\n        require(stakes[msg.sender] >= amount, \"Not enough staked tokens\");\r\n        stakes[msg.sender] -= amount;\r\n\r\n        if (stakes[msg.sender] < minimumStake && isValidator[msg.sender]) {\r\n            isValidator[msg.sender] = false;\r\n            removeStudentValidator(msg.sender);\r\n            emit ValidatorRemoved(msg.sender);\r\n        } else {\r\n            emit TokensUnstaked(msg.sender, amount);\r\n        }\r\n\r\n        token.transfer(msg.sender, amount);\r\n    }\r\n\r\n    function updateMinimumStake() public {\r\n        circulatingSupply = token.totalSupply();\r\n        minimumStake = circulatingSupply / 1000;\r\n    }\r\n\r\n    function rewardValidator(address validator, uint256 rewardAmount) public onlyAdmin {\r\n        require(isValidator[validator] || facultyValidators[validator], \"Not a validator\");\r\n        token.transfer(validator, rewardAmount);\r\n    }\r\n\r\n    function removeStudentValidator(address validator) internal {\r\n        for (uint256 i = 0; i < studentValidators.length; i++) {\r\n            if (studentValidators[i] == validator) {\r\n                studentValidators[i] = studentValidators[studentValidators.length - 1];\r\n                studentValidators.pop();\r\n                break;\r\n            }\r\n        }\r\n    }\r\n\r\n    function getStudentValidators() public view returns (address[] memory) {\r\n        return studentValidators;\r\n    }\r\n\r\n\r\n    function getFacultyValidators() public view returns (address[] memory) {\r\n        address[] memory result = new address[](studentValidators.length);\r\n        uint256 index = 0;\r\n\r\n        // Collect all faculty validators' addresses into the result array\r\n        for (uint256 i = 0; i < studentValidators.length; i++) {\r\n            if (facultyValidators[studentValidators[i]]) {\r\n                result[index] = studentValidators[i];\r\n                index++;\r\n            }\r\n        }\r\n\r\n        return result;    }\r\n}\r\n",
  "sourcePath": "C:\\Users\\Mark\\Desktop\\meggy\\CS4207-Blockchain\\contracts\\Validator.sol",
  "compiler": {
    "name": "solc",
    "version": "0.8.0+commit.c7dfd78e.Emscripten.clang"
  },
  "schemaVersion": "3.4.16",
  "updatedAt": "2024-12-08T00:01:32.344Z",
  "networkType": "ethereum",
  "devdoc": {
    "kind": "dev",
    "methods": {},
    "version": 1
  },
  "userdoc": {
    "kind": "user",
    "methods": {},
    "version": 1
  }
}