{
  "contractName": "Validator",
  "abi": [
    {
      "inputs": [
        {
          "internalType": "address",
          "name": "tokenAddress",
          "type": "address"
        }
      ],
      "stateMutability": "nonpayable",
      "type": "constructor"
    },
    {
      "anonymous": false,
      "inputs": [
        {
          "indexed": true,
          "internalType": "address",
          "name": "user",
          "type": "address"
        },
        {
          "indexed": false,
          "internalType": "uint256",
          "name": "amount",
          "type": "uint256"
        }
      ],
      "name": "TokensStaked",
      "type": "event"
    },
    {
      "anonymous": false,
      "inputs": [
        {
          "indexed": true,
          "internalType": "address",
          "name": "user",
          "type": "address"
        },
        {
          "indexed": false,
          "internalType": "uint256",
          "name": "amount",
          "type": "uint256"
        }
      ],
      "name": "TokensUnstaked",
      "type": "event"
    },
    {
      "anonymous": false,
      "inputs": [
        {
          "indexed": true,
          "internalType": "address",
          "name": "validator",
          "type": "address"
        },
        {
          "indexed": false,
          "internalType": "uint256",
          "name": "stake",
          "type": "uint256"
        }
      ],
      "name": "ValidatorAdded",
      "type": "event"
    },
    {
      "anonymous": false,
      "inputs": [
        {
          "indexed": true,
          "internalType": "address",
          "name": "validator",
          "type": "address"
        }
      ],
      "name": "ValidatorRemoved",
      "type": "event"
    },
    {
      "inputs": [],
      "name": "admin",
      "outputs": [
        {
          "internalType": "address",
          "name": "",
          "type": "address"
        }
      ],
      "stateMutability": "view",
      "type": "function"
    },
    {
      "inputs": [],
      "name": "circulatingSupply",
      "outputs": [
        {
          "internalType": "uint256",
          "name": "",
          "type": "uint256"
        }
      ],
      "stateMutability": "view",
      "type": "function"
    },
    {
      "inputs": [
        {
          "internalType": "address",
          "name": "",
          "type": "address"
        }
      ],
      "name": "facultyValidators",
      "outputs": [
        {
          "internalType": "bool",
          "name": "",
          "type": "bool"
        }
      ],
      "stateMutability": "view",
      "type": "function"
    },
    {
      "inputs": [
        {
          "internalType": "address",
          "name": "",
          "type": "address"
        }
      ],
      "name": "isValidator",
      "outputs": [
        {
          "internalType": "bool",
          "name": "",
          "type": "bool"
        }
      ],
      "stateMutability": "view",
      "type": "function"
    },
    {
      "inputs": [],
      "name": "minimumStake",
      "outputs": [
        {
          "internalType": "uint256",
          "name": "",
          "type": "uint256"
        }
      ],
      "stateMutability": "view",
      "type": "function"
    },
    {
      "inputs": [
        {
          "internalType": "address",
          "name": "",
          "type": "address"
        }
      ],
      "name": "stakes",
      "outputs": [
        {
          "internalType": "uint256",
          "name": "",
          "type": "uint256"
        }
      ],
      "stateMutability": "view",
      "type": "function"
    },
    {
      "inputs": [
        {
          "internalType": "uint256",
          "name": "",
          "type": "uint256"
        }
      ],
      "name": "studentValidators",
      "outputs": [
        {
          "internalType": "address",
          "name": "",
          "type": "address"
        }
      ],
      "stateMutability": "view",
      "type": "function"
    },
    {
      "inputs": [],
      "name": "token",
      "outputs": [
        {
          "internalType": "contract AcademicToken",
          "name": "",
          "type": "address"
        }
      ],
      "stateMutability": "view",
      "type": "function"
    },
    {
      "inputs": [
        {
          "internalType": "address",
          "name": "faculty",
          "type": "address"
        }
      ],
      "name": "addFacultyValidator",
      "outputs": [],
      "stateMutability": "nonpayable",
      "type": "function"
    },
    {
      "inputs": [
        {
          "internalType": "address",
          "name": "faculty",
          "type": "address"
        }
      ],
      "name": "removeFacultyValidator",
      "outputs": [],
      "stateMutability": "nonpayable",
      "type": "function"
    },
    {
      "inputs": [
        {
          "internalType": "address",
          "name": "newAdmin",
          "type": "address"
        }
      ],
      "name": "transferAdmin",
      "outputs": [],
      "stateMutability": "nonpayable",
      "type": "function"
    },
    {
      "inputs": [
        {
          "internalType": "uint256",
          "name": "amount",
          "type": "uint256"
        }
      ],
      "name": "stakeTokens",
      "outputs": [],
      "stateMutability": "nonpayable",
      "type": "function"
    },
    {
      "inputs": [
        {
          "internalType": "uint256",
          "name": "amount",
          "type": "uint256"
        }
      ],
      "name": "unstakeTokens",
      "outputs": [],
      "stateMutability": "nonpayable",
      "type": "function"
    },
    {
      "inputs": [],
      "name": "updateMinimumStake",
      "outputs": [],
      "stateMutability": "nonpayable",
      "type": "function"
    },
    {
      "inputs": [
        {
          "internalType": "address",
          "name": "validator",
          "type": "address"
        },
        {
          "internalType": "uint256",
          "name": "rewardAmount",
          "type": "uint256"
        }
      ],
      "name": "rewardValidator",
      "outputs": [],
      "stateMutability": "nonpayable",
      "type": "function"
    },
    {
      "inputs": [],
      "name": "getValidators",
      "outputs": [
        {
          "internalType": "address[]",
          "name": "",
          "type": "address[]"
        }
      ],
      "stateMutability": "view",
      "type": "function"
    }
  ],
  "bytecode": "0x60806040523480156200001157600080fd5b5060405162001ffb38038062001ffb8339818101604052810190620000379190620001ad565b806000806101000a81548173ffffffffffffffffffffffffffffffffffffffff021916908373ffffffffffffffffffffffffffffffffffffffff16021790555060008054906101000a900473ffffffffffffffffffffffffffffffffffffffff1673ffffffffffffffffffffffffffffffffffffffff166318160ddd6040518163ffffffff1660e01b815260040160206040518083038186803b158015620000de57600080fd5b505afa158015620000f3573d6000803e3d6000fd5b505050506040513d601f19601f82011682018060405250810190620001199190620001d9565b6004819055506103e860045462000131919062000205565b60058190555033600760006101000a81548173ffffffffffffffffffffffffffffffffffffffff021916908373ffffffffffffffffffffffffffffffffffffffff16021790555050620002de565b6000815190506200019081620002aa565b92915050565b600081519050620001a781620002c4565b92915050565b600060208284031215620001c057600080fd5b6000620001d0848285016200017f565b91505092915050565b600060208284031215620001ec57600080fd5b6000620001fc8482850162000196565b91505092915050565b6000620002128262000271565b91506200021f8362000271565b9250826200023257620002316200027b565b5b828204905092915050565b60006200024a8262000251565b9050919050565b600073ffffffffffffffffffffffffffffffffffffffff82169050919050565b6000819050919050565b7f4e487b7100000000000000000000000000000000000000000000000000000000600052601260045260246000fd5b620002b5816200023d565b8114620002c157600080fd5b50565b620002cf8162000271565b8114620002db57600080fd5b50565b611d0d80620002ee6000396000f3fe608060405234801561001057600080fd5b50600436106101005760003560e01c8063c495dd0b11610097578063efc0cbef11610066578063efc0cbef14610285578063f851a440146102a1578063facd743b146102bf578063fc0c546a146102ef57610100565b8063c495dd0b146101fd578063cca2221414610207578063e1773b5214610237578063ec5ffac21461026757610100565b8063806e8f87116100d3578063806e8f87146101895780639358928b146101a5578063b7ab4db5146101c3578063bdbff2f1146101e157610100565b806316934fc414610105578063608e4dd0146101355780637547c7a31461015157806375829def1461016d575b600080fd5b61011f600480360381019061011a91906114c3565b61030d565b60405161012c9190611a4d565b60405180910390f35b61014f600480360381019061014a9190611551565b610325565b005b61016b60048036038101906101669190611551565b610644565b005b610187600480360381019061018291906114c3565b610940565b005b6101a3600480360381019061019e91906114c3565b610a84565b005b6101ad610c3e565b6040516101ba9190611a4d565b60405180910390f35b6101cb610c44565b6040516101d891906118fa565b60405180910390f35b6101fb60048036038101906101f691906114ec565b610cd2565b005b610205610ef4565b005b610221600480360381019061021c91906114c3565b610fb0565b60405161022e919061191c565b60405180910390f35b610251600480360381019061024c9190611551565b610fd0565b60405161025e919061187f565b60405180910390f35b61026f61100f565b60405161027c9190611a4d565b60405180910390f35b61029f600480360381019061029a91906114c3565b611015565b005b6102a96111dc565b6040516102b6919061187f565b60405180910390f35b6102d960048036038101906102d491906114c3565b611202565b6040516102e6919061191c565b60405180910390f35b6102f7611222565b6040516103049190611937565b60405180910390f35b60016020528060005260406000206000915090505481565b80600160003373ffffffffffffffffffffffffffffffffffffffff1673ffffffffffffffffffffffffffffffffffffffff1681526020019081526020016000205410156103a7576040517f08c379a000000000000000000000000000000000000000000000000000000000815260040161039e90611a0d565b60405180910390fd5b80600160003373ffffffffffffffffffffffffffffffffffffffff1673ffffffffffffffffffffffffffffffffffffffff16815260200190815260200160002060008282546103f69190611b39565b92505081905550600554600160003373ffffffffffffffffffffffffffffffffffffffff1673ffffffffffffffffffffffffffffffffffffffff168152602001908152602001600020541080156104965750600260003373ffffffffffffffffffffffffffffffffffffffff1673ffffffffffffffffffffffffffffffffffffffff16815260200190815260200160002060009054906101000a900460ff165b15610544576000600260003373ffffffffffffffffffffffffffffffffffffffff1673ffffffffffffffffffffffffffffffffffffffff16815260200190815260200160002060006101000a81548160ff0219169083151502179055506104fc33611246565b3373ffffffffffffffffffffffffffffffffffffffff167fe1434e25d6611e0db941968fdc97811c982ac1602e951637d206f5fdda9dd8f160405160405180910390a2610593565b3373ffffffffffffffffffffffffffffffffffffffff167f9845e367b683334e5c0b12d7b81721ac518e649376fa65e3d68324e8f34f26798260405161058a9190611a4d565b60405180910390a25b60008054906101000a900473ffffffffffffffffffffffffffffffffffffffff1673ffffffffffffffffffffffffffffffffffffffff1663a9059cbb33836040518363ffffffff1660e01b81526004016105ee9291906118d1565b602060405180830381600087803b15801561060857600080fd5b505af115801561061c573d6000803e3d6000fd5b505050506040513d601f19601f820116820180604052508101906106409190611528565b5050565b600554811015610689576040517f08c379a00000000000000000000000000000000000000000000000000000000081526004016106809061196d565b60405180910390fd5b60008054906101000a900473ffffffffffffffffffffffffffffffffffffffff1673ffffffffffffffffffffffffffffffffffffffff166323b872dd3330846040518463ffffffff1660e01b81526004016106e69392919061189a565b602060405180830381600087803b15801561070057600080fd5b505af1158015610714573d6000803e3d6000fd5b505050506040513d601f19601f820116820180604052508101906107389190611528565b5080600160003373ffffffffffffffffffffffffffffffffffffffff1673ffffffffffffffffffffffffffffffffffffffff16815260200190815260200160002060008282546107889190611ab2565b92505081905550600260003373ffffffffffffffffffffffffffffffffffffffff1673ffffffffffffffffffffffffffffffffffffffff16815260200190815260200160002060009054906101000a900460ff166108ee576001600260003373ffffffffffffffffffffffffffffffffffffffff1673ffffffffffffffffffffffffffffffffffffffff16815260200190815260200160002060006101000a81548160ff0219169083151502179055506003339080600181540180825580915050600190039060005260206000200160009091909190916101000a81548173ffffffffffffffffffffffffffffffffffffffff021916908373ffffffffffffffffffffffffffffffffffffffff1602179055503373ffffffffffffffffffffffffffffffffffffffff167f9000b209805850a65058f21361a9978cb30f1413ed555553ab52a59b440b5d99826040516108e19190611a4d565b60405180910390a261093d565b3373ffffffffffffffffffffffffffffffffffffffff167fb539ca1e5c8d398ddf1c41c30166f33404941683be4683319b57669a93dad4ef826040516109349190611a4d565b60405180910390a25b50565b600760009054906101000a900473ffffffffffffffffffffffffffffffffffffffff1673ffffffffffffffffffffffffffffffffffffffff163373ffffffffffffffffffffffffffffffffffffffff16146109d0576040517f08c379a00000000000000000000000000000000000000000000000000000000081526004016109c79061198d565b60405180910390fd5b600073ffffffffffffffffffffffffffffffffffffffff168173ffffffffffffffffffffffffffffffffffffffff161415610a40576040517f08c379a0000000000000000000000000000000000000000000000000000000008152600401610a37906119cd565b60405180910390fd5b80600760006101000a81548173ffffffffffffffffffffffffffffffffffffffff021916908373ffffffffffffffffffffffffffffffffffffffff16021790555050565b600760009054906101000a900473ffffffffffffffffffffffffffffffffffffffff1673ffffffffffffffffffffffffffffffffffffffff163373ffffffffffffffffffffffffffffffffffffffff1614610b14576040517f08c379a0000000000000000000000000000000000000000000000000000000008152600401610b0b9061198d565b60405180910390fd5b600660008273ffffffffffffffffffffffffffffffffffffffff1673ffffffffffffffffffffffffffffffffffffffff16815260200190815260200160002060009054906101000a900460ff16610ba0576040517f08c379a0000000000000000000000000000000000000000000000000000000008152600401610b9790611a2d565b60405180910390fd5b6000600660008373ffffffffffffffffffffffffffffffffffffffff1673ffffffffffffffffffffffffffffffffffffffff16815260200190815260200160002060006101000a81548160ff0219169083151502179055508073ffffffffffffffffffffffffffffffffffffffff167fe1434e25d6611e0db941968fdc97811c982ac1602e951637d206f5fdda9dd8f160405160405180910390a250565b60045481565b60606003805480602002602001604051908101604052809291908181526020018280548015610cc857602002820191906000526020600020905b8160009054906101000a900473ffffffffffffffffffffffffffffffffffffffff1673ffffffffffffffffffffffffffffffffffffffff1681526020019060010190808311610c7e575b5050505050905090565b600760009054906101000a900473ffffffffffffffffffffffffffffffffffffffff1673ffffffffffffffffffffffffffffffffffffffff163373ffffffffffffffffffffffffffffffffffffffff1614610d62576040517f08c379a0000000000000000000000000000000000000000000000000000000008152600401610d599061198d565b60405180910390fd5b600260008373ffffffffffffffffffffffffffffffffffffffff1673ffffffffffffffffffffffffffffffffffffffff16815260200190815260200160002060009054906101000a900460ff1680610e035750600660008373ffffffffffffffffffffffffffffffffffffffff1673ffffffffffffffffffffffffffffffffffffffff16815260200190815260200160002060009054906101000a900460ff165b610e42576040517f08c379a0000000000000000000000000000000000000000000000000000000008152600401610e39906119ed565b60405180910390fd5b60008054906101000a900473ffffffffffffffffffffffffffffffffffffffff1673ffffffffffffffffffffffffffffffffffffffff1663a9059cbb83836040518363ffffffff1660e01b8152600401610e9d9291906118d1565b602060405180830381600087803b158015610eb757600080fd5b505af1158015610ecb573d6000803e3d6000fd5b505050506040513d601f19601f82011682018060405250810190610eef9190611528565b505050565b60008054906101000a900473ffffffffffffffffffffffffffffffffffffffff1673ffffffffffffffffffffffffffffffffffffffff166318160ddd6040518163ffffffff1660e01b815260040160206040518083038186803b158015610f5a57600080fd5b505afa158015610f6e573d6000803e3d6000fd5b505050506040513d601f19601f82011682018060405250810190610f92919061157a565b6004819055506103e8600454610fa89190611b08565b600581905550565b60066020528060005260406000206000915054906101000a900460ff1681565b60038181548110610fe057600080fd5b906000526020600020016000915054906101000a900473ffffffffffffffffffffffffffffffffffffffff1681565b60055481565b600760009054906101000a900473ffffffffffffffffffffffffffffffffffffffff1673ffffffffffffffffffffffffffffffffffffffff163373ffffffffffffffffffffffffffffffffffffffff16146110a5576040517f08c379a000000000000000000000000000000000000000000000000000000000815260040161109c9061198d565b60405180910390fd5b600660008273ffffffffffffffffffffffffffffffffffffffff1673ffffffffffffffffffffffffffffffffffffffff16815260200190815260200160002060009054906101000a900460ff1615611132576040517f08c379a0000000000000000000000000000000000000000000000000000000008152600401611129906119ad565b60405180910390fd5b6001600660008373ffffffffffffffffffffffffffffffffffffffff1673ffffffffffffffffffffffffffffffffffffffff16815260200190815260200160002060006101000a81548160ff0219169083151502179055508073ffffffffffffffffffffffffffffffffffffffff167f9000b209805850a65058f21361a9978cb30f1413ed555553ab52a59b440b5d9960006040516111d19190611952565b60405180910390a250565b600760009054906101000a900473ffffffffffffffffffffffffffffffffffffffff1681565b60026020528060005260406000206000915054906101000a900460ff1681565b60008054906101000a900473ffffffffffffffffffffffffffffffffffffffff1681565b60005b60038054905081101561146b578173ffffffffffffffffffffffffffffffffffffffff16600382815481106112a7577f4e487b7100000000000000000000000000000000000000000000000000000000600052603260045260246000fd5b9060005260206000200160009054906101000a900473ffffffffffffffffffffffffffffffffffffffff1673ffffffffffffffffffffffffffffffffffffffff16141561145857600360016003805490506113029190611b39565b81548110611339577f4e487b7100000000000000000000000000000000000000000000000000000000600052603260045260246000fd5b9060005260206000200160009054906101000a900473ffffffffffffffffffffffffffffffffffffffff166003828154811061139e577f4e487b7100000000000000000000000000000000000000000000000000000000600052603260045260246000fd5b9060005260206000200160006101000a81548173ffffffffffffffffffffffffffffffffffffffff021916908373ffffffffffffffffffffffffffffffffffffffff160217905550600380548061141e577f4e487b7100000000000000000000000000000000000000000000000000000000600052603160045260246000fd5b6001900381819060005260206000200160006101000a81549073ffffffffffffffffffffffffffffffffffffffff0219169055905561146b565b808061146390611beb565b915050611249565b5050565b60008135905061147e81611c92565b92915050565b60008151905061149381611ca9565b92915050565b6000813590506114a881611cc0565b92915050565b6000815190506114bd81611cc0565b92915050565b6000602082840312156114d557600080fd5b60006114e38482850161146f565b91505092915050565b600080604083850312156114ff57600080fd5b600061150d8582860161146f565b925050602061151e85828601611499565b9150509250929050565b60006020828403121561153a57600080fd5b600061154884828501611484565b91505092915050565b60006020828403121561156357600080fd5b600061157184828501611499565b91505092915050565b60006020828403121561158c57600080fd5b600061159a848285016114ae565b91505092915050565b60006115af83836115bb565b60208301905092915050565b6115c481611b6d565b82525050565b6115d381611b6d565b82525050565b60006115e482611a78565b6115ee8185611a90565b93506115f983611a68565b8060005b8381101561162a57815161161188826115a3565b975061161c83611a83565b9250506001810190506115fd565b5085935050505092915050565b61164081611b7f565b82525050565b61164f81611bb5565b82525050565b61165e81611bd9565b82525050565b6000611671602283611aa1565b91507f416d6f756e74206d757374206d65657420746865206d696e696d756d2073746160008301527f6b650000000000000000000000000000000000000000000000000000000000006020830152604082019050919050565b60006116d7602683611aa1565b91507f4f6e6c79207468652061646d696e2063616e20706572666f726d20746869732060008301527f616374696f6e00000000000000000000000000000000000000000000000000006020830152604082019050919050565b600061173d601b83611aa1565b91507f416c7265616479206120666163756c74792076616c696461746f7200000000006000830152602082019050919050565b600061177d602083611aa1565b91507f4e65772061646d696e20616464726573732063616e6e6f74206265207a65726f6000830152602082019050919050565b60006117bd600f83611aa1565b91507f4e6f7420612076616c696461746f7200000000000000000000000000000000006000830152602082019050919050565b60006117fd601883611aa1565b91507f4e6f7420656e6f756768207374616b656420746f6b656e7300000000000000006000830152602082019050919050565b600061183d601783611aa1565b91507f4e6f74206120666163756c74792076616c696461746f720000000000000000006000830152602082019050919050565b61187981611bab565b82525050565b600060208201905061189460008301846115ca565b92915050565b60006060820190506118af60008301866115ca565b6118bc60208301856115ca565b6118c96040830184611870565b949350505050565b60006040820190506118e660008301856115ca565b6118f36020830184611870565b9392505050565b6000602082019050818103600083015261191481846115d9565b905092915050565b60006020820190506119316000830184611637565b92915050565b600060208201905061194c6000830184611646565b92915050565b60006020820190506119676000830184611655565b92915050565b6000602082019050818103600083015261198681611664565b9050919050565b600060208201905081810360008301526119a6816116ca565b9050919050565b600060208201905081810360008301526119c681611730565b9050919050565b600060208201905081810360008301526119e681611770565b9050919050565b60006020820190508181036000830152611a06816117b0565b9050919050565b60006020820190508181036000830152611a26816117f0565b9050919050565b60006020820190508181036000830152611a4681611830565b9050919050565b6000602082019050611a626000830184611870565b92915050565b6000819050602082019050919050565b600081519050919050565b6000602082019050919050565b600082825260208201905092915050565b600082825260208201905092915050565b6000611abd82611bab565b9150611ac883611bab565b9250827fffffffffffffffffffffffffffffffffffffffffffffffffffffffffffffffff03821115611afd57611afc611c34565b5b828201905092915050565b6000611b1382611bab565b9150611b1e83611bab565b925082611b2e57611b2d611c63565b5b828204905092915050565b6000611b4482611bab565b9150611b4f83611bab565b925082821015611b6257611b61611c34565b5b828203905092915050565b6000611b7882611b8b565b9050919050565b60008115159050919050565b600073ffffffffffffffffffffffffffffffffffffffff82169050919050565b6000819050919050565b6000611bc082611bc7565b9050919050565b6000611bd282611b8b565b9050919050565b6000611be482611bab565b9050919050565b6000611bf682611bab565b91507fffffffffffffffffffffffffffffffffffffffffffffffffffffffffffffffff821415611c2957611c28611c34565b5b600182019050919050565b7f4e487b7100000000000000000000000000000000000000000000000000000000600052601160045260246000fd5b7f4e487b7100000000000000000000000000000000000000000000000000000000600052601260045260246000fd5b611c9b81611b6d565b8114611ca657600080fd5b50565b611cb281611b7f565b8114611cbd57600080fd5b50565b611cc981611bab565b8114611cd457600080fd5b5056fea2646970667358221220be984e4416c686747ee7e8d3ce2937375e28410eba5dfc802ce6e7b1419dc95964736f6c63430008000033",
  "immutableReferences": {},
  "source": "// SPDX-License-Identifier: MIT\r\npragma solidity ^0.8.0;\r\n\r\nimport \"./AcademicToken.sol\";\r\n\r\ncontract Validator {\r\n    AcademicToken public token;\r\n\r\n    mapping(address => uint256) public stakes;\r\n    mapping(address => bool) public isValidator;\r\n    address[] public studentValidators;\r\n\r\n    uint256 public circulatingSupply;\r\n    uint256 public minimumStake;\r\n\r\n    mapping(address => bool) public facultyValidators;\r\n\r\n    address public admin;\r\n\r\n    event ValidatorAdded(address indexed validator, uint256 stake);\r\n    event ValidatorRemoved(address indexed validator);\r\n    event TokensStaked(address indexed user, uint256 amount);\r\n    event TokensUnstaked(address indexed user, uint256 amount);\r\n\r\n    constructor(address tokenAddress) {\r\n        token = AcademicToken(tokenAddress);\r\n        circulatingSupply = token.totalSupply();\r\n        minimumStake = circulatingSupply / 1000;\r\n        admin = msg.sender;\r\n    }\r\n\r\n    modifier onlyAdmin() {\r\n        require(msg.sender == admin, \"Only the admin can perform this action\");\r\n        _;\r\n    }\r\n\r\n    function addFacultyValidator(address faculty) public onlyAdmin {\r\n        require(!facultyValidators[faculty], \"Already a faculty validator\");\r\n        facultyValidators[faculty] = true;\r\n        emit ValidatorAdded(faculty, 0);\r\n    }\r\n\r\n    function removeFacultyValidator(address faculty) public onlyAdmin {\r\n        require(facultyValidators[faculty], \"Not a faculty validator\");\r\n        facultyValidators[faculty] = false;\r\n        emit ValidatorRemoved(faculty);\r\n    }\r\n\r\n    function transferAdmin(address newAdmin) public onlyAdmin {\r\n        require(newAdmin != address(0), \"New admin address cannot be zero\");\r\n        admin = newAdmin;\r\n    }\r\n\r\n    function stakeTokens(uint256 amount) public {\r\n        require(amount >= minimumStake, \"Amount must meet the minimum stake\");\r\n\r\n        token.transferFrom(msg.sender, address(this), amount);\r\n\r\n        stakes[msg.sender] += amount;\r\n\r\n        if (!isValidator[msg.sender]) {\r\n            isValidator[msg.sender] = true;\r\n            studentValidators.push(msg.sender);\r\n            emit ValidatorAdded(msg.sender, amount);\r\n        } else {\r\n            emit TokensStaked(msg.sender, amount);\r\n        }\r\n    }\r\n\r\n    function unstakeTokens(uint256 amount) public {\r\n        require(stakes[msg.sender] >= amount, \"Not enough staked tokens\");\r\n        stakes[msg.sender] -= amount;\r\n\r\n        if (stakes[msg.sender] < minimumStake && isValidator[msg.sender]) {\r\n            isValidator[msg.sender] = false;\r\n            removeStudentValidator(msg.sender);\r\n            emit ValidatorRemoved(msg.sender);\r\n        } else {\r\n            emit TokensUnstaked(msg.sender, amount);\r\n        }\r\n\r\n        token.transfer(msg.sender, amount);\r\n    }\r\n\r\n    function updateMinimumStake() public {\r\n        circulatingSupply = token.totalSupply();\r\n        minimumStake = circulatingSupply / 1000;\r\n    }\r\n\r\n    function rewardValidator(address validator, uint256 rewardAmount) public onlyAdmin {\r\n        require(isValidator[validator] || facultyValidators[validator], \"Not a validator\");\r\n        token.transfer(validator, rewardAmount);\r\n    }\r\n\r\n    function removeStudentValidator(address validator) internal {\r\n        for (uint256 i = 0; i < studentValidators.length; i++) {\r\n            if (studentValidators[i] == validator) {\r\n                studentValidators[i] = studentValidators[studentValidators.length - 1];\r\n                studentValidators.pop();\r\n                break;\r\n            }\r\n        }\r\n    }\r\n\r\n    function getValidators() public view returns (address[] memory) {\r\n        return studentValidators;\r\n    }\r\n}\r\n",
  "sourcePath": "C:\\Users\\omaho\\CS4207-Blockchain\\contracts\\Validator.sol",
  "compiler": {
    "name": "solc",
    "version": "0.8.0+commit.c7dfd78e.Emscripten.clang"
  },
  "schemaVersion": "3.4.16",
  "updatedAt": "2024-12-07T17:52:08.513Z",
  "devdoc": {
    "kind": "dev",
    "methods": {},
    "version": 1
  },
  "userdoc": {
    "kind": "user",
    "methods": {},
    "version": 1
  }
}